{
  "contractName": "FirstAuction",
  "abi": [
    {
      "inputs": [
        {
          "internalType": "uint256",
          "name": "bidders",
          "type": "uint256"
        }
      ],
      "name": "setBidders",
      "outputs": [],
      "stateMutability": "nonpayable",
      "type": "function"
    },
    {
      "inputs": [
        {
          "internalType": "bytes32",
          "name": "blindPrice",
          "type": "bytes32"
        },
        {
          "internalType": "bytes32",
          "name": "blindQuantity",
          "type": "bytes32"
        },
        {
          "internalType": "address",
          "name": "bidder",
          "type": "address"
        },
        {
          "internalType": "uint256",
          "name": "limitingResource",
          "type": "uint256"
        }
      ],
      "name": "makeBid",
      "outputs": [],
      "stateMutability": "nonpayable",
      "type": "function"
    },
    {
      "inputs": [
        {
          "internalType": "uint256",
          "name": "bidPrice",
          "type": "uint256"
        },
        {
          "internalType": "uint256",
          "name": "bidQuantity",
          "type": "uint256"
        }
      ],
      "name": "revealBid",
      "outputs": [],
      "stateMutability": "nonpayable",
      "type": "function"
    }
  ],
  "bytecode": "0x608060405260008055600060015534801561001957600080fd5b506101c0806100296000396000f3fe608060405234801561001057600080fd5b50600436106100415760003560e01c806330b130451461004657806372543923146100df5780637a935370146100f2575b600080fd5b6100dd610054366004610104565b6040805160c081018252600080825260208083018281526001600160a01b03968716848601818152606086019a8b5260808601998a5260a08601978852908452600292839052949092209251835590516001830155915191810180546001600160a01b031916929094169190911790925592516003820155905160048201559051600590910155565b005b6100dd6100ed36600461014f565b600055565b6100dd610100366004610168565b5050565b6000806000806080858703121561011a57600080fd5b843593506020850135925060408501356001600160a01b038116811461013f57600080fd5b9396929550929360600135925050565b60006020828403121561016157600080fd5b5035919050565b6000806040838503121561017b57600080fd5b5050803592602090910135915056fea26469706673582212202c98de2061ece28d7141fec331adbd501b508190ff401d4f82cdcd94936ef6c764736f6c63430008100033",
  "immutableReferences": {},
  "source": "pragma solidity >=0.8.16;\n\ncontract FirstAuction {\n    struct Bid {\n        uint256 valuePrice;\n        uint256 valueQuantity;\n        address payable bidderAddress;\n        bytes32 blindBidPrice; // will have price and quantity you are bidding  \n        bytes32 blindBidQuantity;\n        uint limitingResourceQuantity;\n    }\n    uint totalBidders = 0;\n    uint bidsTillNow = 0;\n\n    mapping (address => Bid) bids;\n\n    function setBidders(uint bidders) public {\n        totalBidders = bidders;\n    }\n\n    function makeBid(bytes32 blindPrice, bytes32 blindQuantity, address bidder, uint limitingResource) public {\n        bids[bidder] = Bid(0, 0, payable(bidder), blindPrice, blindQuantity, limitingResource);\n    }\n\n    function revealBid(uint bidPrice, uint bidQuantity) public {\n\n    }\n\n}",
  "sourcePath": "/home/prince/Course_M22/BLOCKCHAIN/Supply-Chain-Smartcontract/contracts/auction.sol",
  "compiler": {
    "name": "solc",
    "version": "0.8.16+commit.07a7930e.Emscripten.clang"
  },
  "schemaVersion": "3.4.8",
  "updatedAt": "2022-09-16T14:59:38.008Z",
  "devdoc": {
    "kind": "dev",
    "methods": {},
    "version": 1
  },
  "userdoc": {
    "kind": "user",
    "methods": {},
    "version": 1
  }
}