{
  "contractName": "MarketPlace_Structures",
  "abi": [
    {
      "inputs": [],
      "name": "owner",
      "outputs": [
        {
          "internalType": "address payable",
          "name": "",
          "type": "address"
        }
      ],
      "stateMutability": "view",
      "type": "function"
    },
    {
      "inputs": [
        {
          "internalType": "uint256",
          "name": "a",
          "type": "uint256"
        },
        {
          "internalType": "uint256",
          "name": "b",
          "type": "uint256"
        }
      ],
      "name": "minimum",
      "outputs": [
        {
          "internalType": "uint256",
          "name": "",
          "type": "uint256"
        }
      ],
      "stateMutability": "pure",
      "type": "function"
    }
  ],
  "bytecode": "0x608060405234801561001057600080fd5b5060f08061001f6000396000f3fe6080604052348015600f57600080fd5b506004361060325760003560e01c80638da5cb5b146037578063dd2d2a12146066575b600080fd5b6000546049906001600160a01b031681565b6040516001600160a01b0390911681526020015b60405180910390f35b607560713660046099565b6082565b604051908152602001605d565b600081831015609057826092565b815b9392505050565b6000806040838503121560ab57600080fd5b5050803592602090910135915056fea26469706673582212206c41928e1c2c07bdb9304902221bf297edd938d43912d8f00dcd61467a8bdc0c64736f6c63430008100033",
  "immutableReferences": {},
  "source": "pragma solidity >=0.8.16;\n\ncontract MarketPlace_Structures {\n    address payable public owner;\n\n    // @dev State of the auction\n    // @param RUNNING auction is running and bids are being places\n    // @param REVEALING auction has ended and bidders are revealing their bids\n    // @param NOT_STARTED auction hasn't started yet\n    // @param FINISHED auction has finished\n    enum AuctionState {\n        RUNNING,\n        REVEALING,\n        NOT_STARTED,\n        FINISHED\n    }\n\n    // @dev Stores details of the bids\n    struct Bid {\n        uint256 valuePrice;\n        uint256 valueQuantity;\n        address payable bidderAddress;\n        bytes32 blindBidPrice;\n        bytes32 blindBidQuantity;\n        uint256 limitingResourceQuantity;\n        uint256 buyerID;\n        uint256 sellerID;\n        uint256 moneySent;\n        bool correctReveal;\n    }\n\n    // @dev Stores details of purchases requested\n    struct Purchase {\n        uint256 sellerID;\n        uint256 buyerID;\n        uint256 quantity;\n        address payable customeraddr;\n        uint256 money;\n    }\n\n    // @dev Stores details of successful purchases or products bought\n    struct Product {\n        uint256 tag;\n        uint256 manufacturerID;\n        uint256 sellerA;\n        uint256 sellerB;\n    }\n\n    // @dev Stores details of all the suppliers\n    // @note partType is 0 for wheels and 1 for car parts\n    struct Supplier {\n        uint256 tag;\n        int256 partType; // 0 is wheels, 1 is car_parts\n        uint256 quantityAvailable;\n        AuctionState currentState;\n        address wallet;\n        uint256 maxBidders;\n        uint256 bidsPlaced;\n        uint256 bidsRevealed;\n    }\n\n    // @dev Stores details of all the manufacturers\n    struct Manufacturer {\n        uint256 _tag;\n        uint256 quantityA;\n        uint256 quantityB;\n        uint256 cars;\n        uint256 carsprice;\n        AuctionState currentState;\n        address wallet;\n        uint256 maxBidders;\n        uint256 QA_sellerID;\n        uint256 QB_sellerID;\n    }\n\n    // @dev Stores details of all the cars developed\n    struct Car {\n        uint256 tag;\n        uint256 manufacturerID;\n        uint256 sellerIDA;\n        uint256 sellerIDB;\n    }\n\n    // @dev Stores details of all the customers\n    struct Customer {\n        uint256 _tag;\n        address wallet;\n    }\n\n    // @dev Returns minimum of 2 uint256 integers\n    function minimum(uint256 a, uint256 b) public pure returns (uint256) {\n        return a >= b ? b : a;\n    }\n}\n",
  "sourcePath": "/home/prince/Course_M22/BLOCKCHAIN/Supply-Chain-Smartcontract/contracts/MarketPlace_Structures.sol",
  "compiler": {
    "name": "solc",
    "version": "0.8.16+commit.07a7930e.Emscripten.clang"
  },
  "schemaVersion": "3.4.8",
  "updatedAt": "2022-09-16T14:59:37.961Z",
  "devdoc": {
    "kind": "dev",
    "methods": {},
    "version": 1
  },
  "userdoc": {
    "kind": "user",
    "methods": {},
    "version": 1
  }
}