{
  "contractName": "MarketPlace_Storage",
  "abi": [
    {
      "inputs": [
        {
          "internalType": "uint256",
          "name": "",
          "type": "uint256"
        }
      ],
      "name": "customers",
      "outputs": [
        {
          "internalType": "uint256",
          "name": "_tag",
          "type": "uint256"
        },
        {
          "internalType": "address",
          "name": "wallet",
          "type": "address"
        }
      ],
      "stateMutability": "view",
      "type": "function"
    },
    {
      "inputs": [
        {
          "internalType": "uint256",
          "name": "",
          "type": "uint256"
        }
      ],
      "name": "manufacturers",
      "outputs": [
        {
          "internalType": "uint256",
          "name": "_tag",
          "type": "uint256"
        },
        {
          "internalType": "uint256",
          "name": "quantityA",
          "type": "uint256"
        },
        {
          "internalType": "uint256",
          "name": "quantityB",
          "type": "uint256"
        },
        {
          "internalType": "uint256",
          "name": "cars",
          "type": "uint256"
        },
        {
          "internalType": "uint256",
          "name": "carsprice",
          "type": "uint256"
        },
        {
          "internalType": "enum MarketPlace_Structures.AuctionState",
          "name": "currentState",
          "type": "uint8"
        },
        {
          "internalType": "address",
          "name": "wallet",
          "type": "address"
        },
        {
          "internalType": "uint256",
          "name": "maxBidders",
          "type": "uint256"
        },
        {
          "internalType": "uint256",
          "name": "QA_sellerID",
          "type": "uint256"
        },
        {
          "internalType": "uint256",
          "name": "QB_sellerID",
          "type": "uint256"
        }
      ],
      "stateMutability": "view",
      "type": "function"
    },
    {
      "inputs": [
        {
          "internalType": "uint256",
          "name": "a",
          "type": "uint256"
        },
        {
          "internalType": "uint256",
          "name": "b",
          "type": "uint256"
        }
      ],
      "name": "minimum",
      "outputs": [
        {
          "internalType": "uint256",
          "name": "",
          "type": "uint256"
        }
      ],
      "stateMutability": "pure",
      "type": "function"
    },
    {
      "inputs": [],
      "name": "num_customer",
      "outputs": [
        {
          "internalType": "uint256",
          "name": "",
          "type": "uint256"
        }
      ],
      "stateMutability": "view",
      "type": "function"
    },
    {
      "inputs": [],
      "name": "num_manufacturer",
      "outputs": [
        {
          "internalType": "uint256",
          "name": "",
          "type": "uint256"
        }
      ],
      "stateMutability": "view",
      "type": "function"
    },
    {
      "inputs": [],
      "name": "num_products",
      "outputs": [
        {
          "internalType": "uint256",
          "name": "",
          "type": "uint256"
        }
      ],
      "stateMutability": "view",
      "type": "function"
    },
    {
      "inputs": [],
      "name": "num_supplier",
      "outputs": [
        {
          "internalType": "uint256",
          "name": "",
          "type": "uint256"
        }
      ],
      "stateMutability": "view",
      "type": "function"
    },
    {
      "inputs": [],
      "name": "owner",
      "outputs": [
        {
          "internalType": "address payable",
          "name": "",
          "type": "address"
        }
      ],
      "stateMutability": "view",
      "type": "function"
    },
    {
      "inputs": [
        {
          "internalType": "uint256",
          "name": "",
          "type": "uint256"
        }
      ],
      "name": "suppliers",
      "outputs": [
        {
          "internalType": "uint256",
          "name": "tag",
          "type": "uint256"
        },
        {
          "internalType": "int256",
          "name": "partType",
          "type": "int256"
        },
        {
          "internalType": "uint256",
          "name": "quantityAvailable",
          "type": "uint256"
        },
        {
          "internalType": "enum MarketPlace_Structures.AuctionState",
          "name": "currentState",
          "type": "uint8"
        },
        {
          "internalType": "address",
          "name": "wallet",
          "type": "address"
        },
        {
          "internalType": "uint256",
          "name": "maxBidders",
          "type": "uint256"
        },
        {
          "internalType": "uint256",
          "name": "bidsPlaced",
          "type": "uint256"
        },
        {
          "internalType": "uint256",
          "name": "bidsRevealed",
          "type": "uint256"
        }
      ],
      "stateMutability": "view",
      "type": "function"
    }
  ],
  "bytecode": "0x608060405234801561001057600080fd5b5061039f806100206000396000f3fe608060405234801561001057600080fd5b50600436106100835760003560e01c80634cc9aff8146100885780638da5cb5b146100a457806390175af1146100cf578063c040521714610150578063c0abda2a14610159578063cea23121146101a6578063dd2d2a1214610218578063eb16d0e41461022b578063edcac78b14610234575b600080fd5b61009160025481565b6040519081526020015b60405180910390f35b6000546100b7906001600160a01b031681565b6040516001600160a01b03909116815260200161009b565b61013a6100dd366004610256565b60066020819052600091825260409091208054600182015460028301546003840154600485015460058601549686015460078701546008909701549597949693959294919360ff8316936101009093046001600160a01b0316928a565b60405161009b9a99989796959493929190610291565b61009160045481565b610189610167366004610256565b600760205260009081526040902080546001909101546001600160a01b031682565b604080519283526001600160a01b0390911660208301520161009b565b6102046101b4366004610256565b6005602081905260009182526040909120805460018201546002830154600384015460048501549585015460069095015493959294919360ff8216936101009092046001600160a01b0316929088565b60405161009b9897969594939291906102f5565b610091610226366004610347565b61023d565b61009160035481565b61009160015481565b60008183101561024d578261024f565b815b9392505050565b60006020828403121561026857600080fd5b5035919050565b6004811061028d57634e487b7160e01b600052602160045260246000fd5b9052565b6000610140820190508b82528a60208301528960408301528860608301528760808301526102c260a083018861026f565b6001600160a01b039590951660c082015260e0810193909352610100830191909152610120909101529695505050505050565b88815260208101889052604081018790526101008101610318606083018861026f565b6001600160a01b0395909516608082015260a081019390935260c083019190915260e090910152949350505050565b6000806040838503121561035a57600080fd5b5050803592602090910135915056fea2646970667358221220017e5435023cfb928d01f623e67c62fe464ef35ed8445f4db925dd729dc595c364736f6c63430008100033",
  "immutableReferences": {},
  "source": "pragma solidity >=0.8.16;\n\nimport {MarketPlace_Structures} from \"./MarketPlace_Structures.sol\";\n\ncontract MarketPlace_Storage is MarketPlace_Structures {\n    uint256 public num_supplier;\n    uint256 public num_manufacturer;\n    uint256 public num_customer;\n    uint256 public num_products;\n\n    mapping(uint256 => Supplier) public suppliers;\n    mapping(uint256 => Manufacturer) public manufacturers;\n    mapping(uint256 => Customer) public customers;\n    mapping(address => Bid[]) bidsTillNow;\n    mapping(address => Purchase[]) purchasesTillNow;\n    mapping(address => Product[]) productsTillNow;\n    mapping(uint256 => Car[]) carsBought;\n}\n",
  "sourcePath": "/home/prince/Course_M22/BLOCKCHAIN/Supply-Chain-Smartcontract/contracts/MarketPlace_Storage.sol",
  "compiler": {
    "name": "solc",
    "version": "0.8.16+commit.07a7930e.Emscripten.clang"
  },
  "schemaVersion": "3.4.8",
  "updatedAt": "2022-09-16T14:59:37.957Z",
  "devdoc": {
    "kind": "dev",
    "methods": {},
    "version": 1
  },
  "userdoc": {
    "kind": "user",
    "methods": {},
    "version": 1
  }
}