{
  "contractName": "MarketPlace_CustomerInterface",
  "abi": [
    {
      "inputs": [],
      "stateMutability": "nonpayable",
      "type": "constructor"
    },
    {
      "anonymous": false,
      "inputs": [
        {
          "indexed": false,
          "internalType": "uint256",
          "name": "manufacturerID",
          "type": "uint256"
        },
        {
          "indexed": false,
          "internalType": "uint256",
          "name": "customerID",
          "type": "uint256"
        },
        {
          "indexed": false,
          "internalType": "uint256",
          "name": "quantity",
          "type": "uint256"
        },
        {
          "indexed": false,
          "internalType": "uint256",
          "name": "price",
          "type": "uint256"
        },
        {
          "indexed": false,
          "internalType": "uint256[100]",
          "name": "carTag",
          "type": "uint256[100]"
        }
      ],
      "name": "AllocateFromManufacturer",
      "type": "event"
    },
    {
      "anonymous": false,
      "inputs": [
        {
          "indexed": false,
          "internalType": "uint256",
          "name": "supplierID",
          "type": "uint256"
        },
        {
          "indexed": false,
          "internalType": "uint256",
          "name": "manufacturerID",
          "type": "uint256"
        },
        {
          "indexed": false,
          "internalType": "uint256",
          "name": "quantity",
          "type": "uint256"
        },
        {
          "indexed": false,
          "internalType": "uint256",
          "name": "price",
          "type": "uint256"
        }
      ],
      "name": "AllocateFromSupplier",
      "type": "event"
    },
    {
      "anonymous": false,
      "inputs": [
        {
          "indexed": false,
          "internalType": "uint256",
          "name": "CustomerID",
          "type": "uint256"
        },
        {
          "indexed": false,
          "internalType": "uint256",
          "name": "ManufacturerID",
          "type": "uint256"
        },
        {
          "indexed": false,
          "internalType": "uint256",
          "name": "Quantity",
          "type": "uint256"
        },
        {
          "indexed": false,
          "internalType": "uint256",
          "name": "Price",
          "type": "uint256"
        }
      ],
      "name": "CustomerRequest",
      "type": "event"
    },
    {
      "anonymous": false,
      "inputs": [
        {
          "indexed": false,
          "internalType": "uint256",
          "name": "manufacturerID",
          "type": "uint256"
        },
        {
          "indexed": false,
          "internalType": "uint256",
          "name": "endTime",
          "type": "uint256"
        }
      ],
      "name": "EndManufacturerAuction",
      "type": "event"
    },
    {
      "anonymous": false,
      "inputs": [
        {
          "indexed": false,
          "internalType": "uint256",
          "name": "supplierID",
          "type": "uint256"
        },
        {
          "indexed": false,
          "internalType": "uint256",
          "name": "endTime",
          "type": "uint256"
        }
      ],
      "name": "EndSupplierAuction",
      "type": "event"
    },
    {
      "anonymous": false,
      "inputs": [
        {
          "indexed": false,
          "internalType": "uint256",
          "name": "supplierID",
          "type": "uint256"
        },
        {
          "indexed": false,
          "internalType": "uint256",
          "name": "manufacturerID",
          "type": "uint256"
        },
        {
          "indexed": false,
          "internalType": "bytes32",
          "name": "blindBidPrice",
          "type": "bytes32"
        },
        {
          "indexed": false,
          "internalType": "bytes32",
          "name": "blindBidQuantity",
          "type": "bytes32"
        }
      ],
      "name": "ManufacturerBids",
      "type": "event"
    },
    {
      "anonymous": false,
      "inputs": [
        {
          "indexed": false,
          "internalType": "uint256",
          "name": "supplierID",
          "type": "uint256"
        },
        {
          "indexed": false,
          "internalType": "uint256",
          "name": "manufacturerID",
          "type": "uint256"
        },
        {
          "indexed": false,
          "internalType": "uint256",
          "name": "price",
          "type": "uint256"
        },
        {
          "indexed": false,
          "internalType": "uint256",
          "name": "quantity",
          "type": "uint256"
        }
      ],
      "name": "ManufacturerReveal",
      "type": "event"
    },
    {
      "anonymous": false,
      "inputs": [
        {
          "indexed": false,
          "internalType": "uint256",
          "name": "manufacturerID",
          "type": "uint256"
        },
        {
          "indexed": false,
          "internalType": "uint256",
          "name": "startTime",
          "type": "uint256"
        }
      ],
      "name": "StartManufacturerAuction",
      "type": "event"
    },
    {
      "anonymous": false,
      "inputs": [
        {
          "indexed": false,
          "internalType": "uint256",
          "name": "supplierID",
          "type": "uint256"
        },
        {
          "indexed": false,
          "internalType": "uint256",
          "name": "startTime",
          "type": "uint256"
        }
      ],
      "name": "StartSupplierAuction",
      "type": "event"
    },
    {
      "inputs": [
        {
          "internalType": "uint256",
          "name": "",
          "type": "uint256"
        }
      ],
      "name": "customers",
      "outputs": [
        {
          "internalType": "uint256",
          "name": "_tag",
          "type": "uint256"
        },
        {
          "internalType": "address",
          "name": "wallet",
          "type": "address"
        }
      ],
      "stateMutability": "view",
      "type": "function",
      "constant": true
    },
    {
      "inputs": [
        {
          "internalType": "uint256",
          "name": "manufacturerID",
          "type": "uint256"
        },
        {
          "internalType": "uint256",
          "name": "supplierID",
          "type": "uint256"
        },
        {
          "internalType": "uint256",
          "name": "price",
          "type": "uint256"
        },
        {
          "internalType": "uint256",
          "name": "quantity",
          "type": "uint256"
        }
      ],
      "name": "manufactuerRevealBid",
      "outputs": [
        {
          "internalType": "bool",
          "name": "",
          "type": "bool"
        }
      ],
      "stateMutability": "nonpayable",
      "type": "function"
    },
    {
      "inputs": [
        {
          "internalType": "uint256",
          "name": "manufacturerID",
          "type": "uint256"
        },
        {
          "internalType": "uint256",
          "name": "supplierID",
          "type": "uint256"
        },
        {
          "internalType": "bytes32",
          "name": "blindPrice",
          "type": "bytes32"
        },
        {
          "internalType": "bytes32",
          "name": "blindQuantity",
          "type": "bytes32"
        },
        {
          "internalType": "uint256",
          "name": "limit",
          "type": "uint256"
        }
      ],
      "name": "manufacturerPlacesBid",
      "outputs": [],
      "stateMutability": "payable",
      "type": "function",
      "payable": true
    },
    {
      "inputs": [
        {
          "internalType": "uint256",
          "name": "",
          "type": "uint256"
        }
      ],
      "name": "manufacturers",
      "outputs": [
        {
          "internalType": "uint256",
          "name": "_tag",
          "type": "uint256"
        },
        {
          "internalType": "uint256",
          "name": "quantityA",
          "type": "uint256"
        },
        {
          "internalType": "uint256",
          "name": "quantityB",
          "type": "uint256"
        },
        {
          "internalType": "uint256",
          "name": "cars",
          "type": "uint256"
        },
        {
          "internalType": "uint256",
          "name": "carsprice",
          "type": "uint256"
        },
        {
          "internalType": "enum MarketPlace_Structures.AuctionState",
          "name": "currentState",
          "type": "uint8"
        },
        {
          "internalType": "address",
          "name": "wallet",
          "type": "address"
        },
        {
          "internalType": "uint256",
          "name": "maxBidders",
          "type": "uint256"
        },
        {
          "internalType": "uint256",
          "name": "QA_sellerID",
          "type": "uint256"
        },
        {
          "internalType": "uint256",
          "name": "QB_sellerID",
          "type": "uint256"
        }
      ],
      "stateMutability": "view",
      "type": "function",
      "constant": true
    },
    {
      "inputs": [
        {
          "internalType": "uint256",
          "name": "a",
          "type": "uint256"
        },
        {
          "internalType": "uint256",
          "name": "b",
          "type": "uint256"
        }
      ],
      "name": "minimum",
      "outputs": [
        {
          "internalType": "uint256",
          "name": "",
          "type": "uint256"
        }
      ],
      "stateMutability": "pure",
      "type": "function",
      "constant": true
    },
    {
      "inputs": [],
      "name": "num_customer",
      "outputs": [
        {
          "internalType": "uint256",
          "name": "",
          "type": "uint256"
        }
      ],
      "stateMutability": "view",
      "type": "function",
      "constant": true
    },
    {
      "inputs": [],
      "name": "num_manufacturer",
      "outputs": [
        {
          "internalType": "uint256",
          "name": "",
          "type": "uint256"
        }
      ],
      "stateMutability": "view",
      "type": "function",
      "constant": true
    },
    {
      "inputs": [],
      "name": "num_products",
      "outputs": [
        {
          "internalType": "uint256",
          "name": "",
          "type": "uint256"
        }
      ],
      "stateMutability": "view",
      "type": "function",
      "constant": true
    },
    {
      "inputs": [],
      "name": "num_supplier",
      "outputs": [
        {
          "internalType": "uint256",
          "name": "",
          "type": "uint256"
        }
      ],
      "stateMutability": "view",
      "type": "function",
      "constant": true
    },
    {
      "inputs": [],
      "name": "owner",
      "outputs": [
        {
          "internalType": "address payable",
          "name": "",
          "type": "address"
        }
      ],
      "stateMutability": "view",
      "type": "function",
      "constant": true
    },
    {
      "inputs": [
        {
          "internalType": "uint256",
          "name": "manufacturerID",
          "type": "uint256"
        },
        {
          "internalType": "uint256",
          "name": "price",
          "type": "uint256"
        }
      ],
      "name": "set_cars_price",
      "outputs": [],
      "stateMutability": "nonpayable",
      "type": "function"
    },
    {
      "inputs": [
        {
          "internalType": "uint256",
          "name": "suppliedID",
          "type": "uint256"
        },
        {
          "internalType": "uint256",
          "name": "quantityToAdd",
          "type": "uint256"
        }
      ],
      "name": "supplierAddQuantity",
      "outputs": [],
      "stateMutability": "nonpayable",
      "type": "function"
    },
    {
      "inputs": [
        {
          "internalType": "uint256",
          "name": "tag",
          "type": "uint256"
        }
      ],
      "name": "supplierEndAuction",
      "outputs": [
        {
          "internalType": "uint256",
          "name": "",
          "type": "uint256"
        }
      ],
      "stateMutability": "nonpayable",
      "type": "function"
    },
    {
      "inputs": [
        {
          "internalType": "uint256",
          "name": "tag",
          "type": "uint256"
        }
      ],
      "name": "supplierEndReveal",
      "outputs": [
        {
          "internalType": "uint256",
          "name": "",
          "type": "uint256"
        }
      ],
      "stateMutability": "nonpayable",
      "type": "function"
    },
    {
      "inputs": [
        {
          "internalType": "uint256",
          "name": "tag",
          "type": "uint256"
        }
      ],
      "name": "supplierStartAuction",
      "outputs": [
        {
          "internalType": "uint256",
          "name": "",
          "type": "uint256"
        }
      ],
      "stateMutability": "nonpayable",
      "type": "function"
    },
    {
      "inputs": [
        {
          "internalType": "uint256",
          "name": "",
          "type": "uint256"
        }
      ],
      "name": "suppliers",
      "outputs": [
        {
          "internalType": "uint256",
          "name": "tag",
          "type": "uint256"
        },
        {
          "internalType": "int256",
          "name": "partType",
          "type": "int256"
        },
        {
          "internalType": "uint256",
          "name": "quantityAvailable",
          "type": "uint256"
        },
        {
          "internalType": "enum MarketPlace_Structures.AuctionState",
          "name": "currentState",
          "type": "uint8"
        },
        {
          "internalType": "address",
          "name": "wallet",
          "type": "address"
        },
        {
          "internalType": "uint256",
          "name": "maxBidders",
          "type": "uint256"
        },
        {
          "internalType": "uint256",
          "name": "bidsPlaced",
          "type": "uint256"
        },
        {
          "internalType": "uint256",
          "name": "bidsRevealed",
          "type": "uint256"
        }
      ],
      "stateMutability": "view",
      "type": "function",
      "constant": true
    },
    {
      "inputs": [
        {
          "internalType": "address",
          "name": "senderaddr",
          "type": "address"
        },
        {
          "internalType": "uint256",
          "name": "effectivePrice",
          "type": "uint256"
        }
      ],
      "name": "transferMoney",
      "outputs": [],
      "stateMutability": "payable",
      "type": "function",
      "payable": true
    },
    {
      "inputs": [
        {
          "internalType": "uint256",
          "name": "customerID",
          "type": "uint256"
        },
        {
          "internalType": "uint256",
          "name": "manufacturerID",
          "type": "uint256"
        },
        {
          "internalType": "uint256",
          "name": "quantity",
          "type": "uint256"
        }
      ],
      "name": "customerPurchase",
      "outputs": [],
      "stateMutability": "payable",
      "type": "function",
      "payable": true
    },
    {
      "inputs": [
        {
          "internalType": "uint256",
          "name": "manufacturerID",
          "type": "uint256"
        }
      ],
      "name": "manufacturerSupplyCars",
      "outputs": [],
      "stateMutability": "nonpayable",
      "type": "function"
    },
    {
      "inputs": [
        {
          "internalType": "int256",
          "name": "partType",
          "type": "int256"
        },
        {
          "internalType": "uint256",
          "name": "quantityAvailable",
          "type": "uint256"
        },
        {
          "internalType": "address payable",
          "name": "addr",
          "type": "address"
        },
        {
          "internalType": "uint256",
          "name": "auctionBidders",
          "type": "uint256"
        }
      ],
      "name": "addSupplier",
      "outputs": [
        {
          "internalType": "uint256",
          "name": "tag",
          "type": "uint256"
        }
      ],
      "stateMutability": "nonpayable",
      "type": "function"
    },
    {
      "inputs": [
        {
          "internalType": "address payable",
          "name": "addr",
          "type": "address"
        },
        {
          "internalType": "uint256",
          "name": "auctionBidders",
          "type": "uint256"
        }
      ],
      "name": "addManufacturer",
      "outputs": [
        {
          "internalType": "uint256",
          "name": "tag",
          "type": "uint256"
        }
      ],
      "stateMutability": "nonpayable",
      "type": "function"
    },
    {
      "inputs": [
        {
          "internalType": "address payable",
          "name": "addr",
          "type": "address"
        }
      ],
      "name": "addCustomer",
      "outputs": [
        {
          "internalType": "uint256",
          "name": "tag",
          "type": "uint256"
        }
      ],
      "stateMutability": "nonpayable",
      "type": "function"
    },
    {
      "inputs": [
        {
          "internalType": "uint256",
          "name": "customerID",
          "type": "uint256"
        },
        {
          "internalType": "uint256",
          "name": "car_tag",
          "type": "uint256"
        }
      ],
      "name": "verifyproduct",
      "outputs": [
        {
          "internalType": "uint256",
          "name": "carID",
          "type": "uint256"
        },
        {
          "internalType": "uint256",
          "name": "manfID",
          "type": "uint256"
        },
        {
          "internalType": "uint256",
          "name": "sellerIDA",
          "type": "uint256"
        },
        {
          "internalType": "uint256",
          "name": "sellerIDB",
          "type": "uint256"
        }
      ],
      "stateMutability": "view",
      "type": "function",
      "constant": true
    }
  ],
  "bytecode": "0x608060405234801561001057600080fd5b50600080546001600160a01b03191633178155600281905560018190556003556130608061003f6000396000f3fe6080604052600436106101105760003560e01c80630cf3750d146101155780631788b2d91461013757806317c9dea61461016c57806318c15d421461019a5780634cc9aff8146101ad57806362949a5d146101c35780638da5cb5b146101d657806390175af11461020e5780639a7a9b131461029c578063a436792b146102bc578063aa8613c4146102dc578063ad973d74146102fc578063c04052171461031c578063c0abda2a14610332578063c2ff9e441461038c578063cea23121146103ac578063d6470b491461042b578063dd2d2a121461044b578063e2416a2c1461046b578063eb16d0e41461048b578063edcac78b146104a1578063f895c520146104b7578063fee666ad146104e7575b600080fd5b34801561012157600080fd5b50610135610130366004612c62565b6104fa565b005b34801561014357600080fd5b50610157610152366004612c84565b61055e565b60405190151581526020015b60405180910390f35b34801561017857600080fd5b5061018c610187366004612cb6565b610a7a565b604051908152602001610163565b6101356101a8366004612ccf565b610b7c565b3480156101b957600080fd5b5061018c60025481565b6101356101d1366004612d0a565b610f2f565b3480156101e257600080fd5b506000546101f6906001600160a01b031681565b6040516001600160a01b039091168152602001610163565b34801561021a57600080fd5b50610286610229366004612cb6565b60066020819052600091825260409091208054600182015460028301546003840154600485015460058601549686015460078701546008909701549597949693959294919360ff8316936101009093046001600160a01b0316928a565b6040516101639a99989796959493929190612d6e565b3480156102a857600080fd5b5061018c6102b7366004612de7565b611120565b3480156102c857600080fd5b5061018c6102d7366004612e26565b611228565b3480156102e857600080fd5b5061018c6102f7366004612cb6565b611370565b34801561030857600080fd5b5061018c610317366004612e52565b61145c565b34801561032857600080fd5b5061018c60045481565b34801561033e57600080fd5b5061036f61034d366004612cb6565b600760205260009081526040902080546001909101546001600160a01b031682565b604080519283526001600160a01b03909116602083015201610163565b34801561039857600080fd5b506101356103a7366004612cb6565b6114c5565b3480156103b857600080fd5b506104176103c7366004612cb6565b6005602081905260009182526040909120805460018201546002830154600384015460048501549585015460069095015493959294919360ff8216936101009092046001600160a01b0316929088565b604051610163989796959493929190612e6f565b34801561043757600080fd5b50610135610446366004612c62565b611c3d565b34801561045757600080fd5b5061018c610466366004612c62565b611ccc565b34801561047757600080fd5b5061018c610486366004612cb6565b611ce5565b34801561049757600080fd5b5061018c60035481565b3480156104ad57600080fd5b5061018c60015481565b3480156104c357600080fd5b506104d76104d2366004612c62565b6128b5565b6040516101639493929190612ec1565b6101356104f5366004612e26565b612a30565b60008281526005602052604090206003015461010090046001600160a01b0316331461052557600080fd5b81600154101561053457600080fd5b60008281526005602052604081206002018054839290610555908490612ef2565b90915550505050565b60006002548511156105ae5760405162461bcd60e51b815260206004820152601460248201527324b73b30b634b21036b0b73ab330b1ba3ab932b960611b60448201526064015b60405180910390fd5b6001600085815260056020526040902060039081015460ff16908111156105d7576105d7612d36565b146105e157600080fd5b60005b60008581526005602090815260408083206003015461010090046001600160a01b031683526008909152902054811015610a6c5760008581526005602090815260408083206003015461010090046001600160a01b031683526008909152902080548791908390811061065957610659612f05565b90600052602060002090600a02016006015403610a5a5760008581526005602090815260408083206003015461010090046001600160a01b03168352600890915290208054829081106106ae576106ae612f05565b90600052602060002090600a020160030154846040516020016106d391815260200190565b60405160208183030381529060405280519060200120146107445760405162461bcd60e51b815260206004820152602560248201527f496e636f7272656374207072696365202d2d206b656570696e6720796f7572206044820152646d6f6e657960d81b60648201526084016105a5565b60008581526005602090815260408083206003015461010090046001600160a01b031683526008909152902080548290811061078257610782612f05565b90600052602060002090600a020160040154836040516020016107a791815260200190565b604051602081830303815290604052805190602001201461081b5760405162461bcd60e51b815260206004820152602860248201527f496e636f7272656374207175616e74697479202d2d206b656570696e6720796f6044820152677572206d6f6e657960c01b60648201526084016105a5565b60006108278486612f1b565b60008781526005602090815260408083206003015461010090046001600160a01b03168352600890915290208054919250908390811061086957610869612f05565b90600052602060002090600a0201600801548111156108e05760405162461bcd60e51b815260206004820152602d60248201527f496e73756666696369656e742066756e64732073656e74202d2d206b6565706960448201526c6e6720796f7572206d6f6e657960981b60648201526084016105a5565b60008681526005602090815260408083206003015461010090046001600160a01b03168352600890915290208054600191908490811061092257610922612f05565b60009182526020808320600a92909202909101600901805460ff1916931515939093179092558781526005825260408082206003015461010090046001600160a01b0316825260089092522080548691908490811061098357610983612f05565b60009182526020808320600a90920290910192909255878152600582526040808220600301546001600160a01b036101009091041682526008909252208054859190849081106109d5576109d5612f05565b90600052602060002090600a0201600101819055507fee291b467c1ae7dd29ffc047df3454190c09d3730496830a392209c7bc38f5ca86888787604051610a1f9493929190612ec1565b60405180910390a16000868152600560205260408120600601805460019290610a49908490612ef2565b9091555060019350610a7292505050565b80610a6481612f3a565b9150506105e4565b50600090505b949350505050565b6000600154821115610a9e5760405162461bcd60e51b81526004016105a590612f53565b600082815260056020526040812060039081015460ff1690811115610ac557610ac5612d36565b03610b105760405162461bcd60e51b815260206004820152601b60248201527a41756374696f6e20696e2d70726f677265737320616c726561647960281b60448201526064016105a5565b600082815260056020818152604080842060038101805460ff19169055928301849055600690920192909255805184815242928101929092527f10449cff8425a2b933fdd57a667ad5bdad3da817ddd9179f125f5c7756582e1791015b60405180910390a15042919050565b846002541015610bcb5760405162461bcd60e51b815260206004820152601a60248201527913585b9d599858dd1d5c995c88191bd95cdb89dd08195e1a5cdd60321b60448201526064016105a5565b836001541015610bed5760405162461bcd60e51b81526004016105a590612f7f565b600084815260056020526040812060039081015460ff1690811115610c1457610c14612d36565b14610c755760405162461bcd60e51b815260206004820152602b60248201527f537570706c6965722069736e27742072756e6e696e6720616e2061756374696f60448201526a6e207269676874206e6f7760a81b60648201526084016105a5565b84841480610c835750836003145b610cca5760405162461bcd60e51b8152602060048201526018602482015277537570706c69657220646f65736e742073656c6c20796f7560401b60448201526064016105a5565b6040805161014081018252600080825260208201819052918101829052606081018290526080810182905260a0810182905260c0810182905260e0810182905261010081018290526101208101919091523381604001906001600160a01b031690816001600160a01b0316815250503481610100018181525050858160c0018181525050848160e00181815250508381606001818152505082816080018181525050818160a00181815250506000816000018181525050600081602001818152505060008161012001901515908115158152505060006005600087815260200190815260200160002060030160019054906101000a90046001600160a01b0316905060086000826001600160a01b03166001600160a01b031681526020019081526020016000208290806001815401808255809150506001900390600052602060002090600a0201600090919091909150600082015181600001556020820151816001015560408201518160020160006101000a8154816001600160a01b0302191690836001600160a01b03160217905550606082015181600301556080820151816004015560a0820151816005015560c0820151816006015560e0820151816007015561010082015181600801556101208201518160090160006101000a81548160ff02191690831515021790555050506001600560008881526020019081526020016000206005016000828254610ee39190612ef2565b90915550506040517fdbd4ed8ca35fd076d8fdc3ddae80bf4fac4fc55dd918d5868cf2b92f82d2de5390610f1e9088908a9089908990612ec1565b60405180910390a150505050505050565b6000838152600760205260409020600101546001600160a01b0316331480610f6157506000546001600160a01b031633145b610f9d5760405162461bcd60e51b815260206004820152600d60248201526c1058d8d95cdcc811195b9a5959609a1b60448201526064016105a5565b610fd86040518060a0016040528060008152602001600081526020016000815260200160006001600160a01b03168152602001600081525090565b828152336060820152604080820183905260208083018690523460808401526000858152600690915290812060040154906110138483612f1b565b9050808360800151101561105c5760405162461bcd60e51b815260206004820152601060248201526f09adedccaf240dcdee840cadcdeeaced60831b60448201526064016105a5565b600085815260066020818152604080842060058082015461010090046001600160a01b0390811680885260098652848820805460018082018355918a52878a208d51919095029094019384558b870151908401558a850151600284015560608b01516003840180546001600160a01b031916919093161790915560808a0151600492830155958b90529390925291015490517ffee408fb277c265efa7c7adea166e7ebe6ce1e4bf153cc84a610be9a46d4ba8291610f1e918a918a918a9190612ec1565b600180546000918261113183612f3a565b909155505060408051610100810182526001805480835260208084018a81528486018a81526002606087018181526001600160a01b038c16608089015260a088018b9052600060c0890181905260e08901819052958652600590945296909320855181559051818501559151948201949094559251600380850180549495949293909260ff19169184908111156111ca576111ca612d36565b021790555060808201516003820180546001600160a01b0390921661010002610100600160a81b031990921691909117905560a0820151600482015560c0820151600582015560e09091015160069091015550600154949350505050565b600280546000918261123983612f3a565b91905055506040518061014001604052806002548152602001600081526020016000815260200160008152602001600081526020016002600381111561128157611281612d36565b8152602001846001600160a01b03168152602001838152602001600081526020016000815250600660006002548152602001908152602001600020600082015181600001556020820151816001015560408201518160020155606082015181600301556080820151816004015560a08201518160050160006101000a81548160ff0219169083600381111561131857611318612d36565b021790555060c0820151600582018054610100600160a81b0319166101006001600160a01b03909316830217905560e08301516006830155820151600782015561012090910151600890910155506002545b92915050565b60006001548211156113945760405162461bcd60e51b81526004016105a590612f53565b600082815260056020526040812060039081015460ff16908111156113bb576113bb612d36565b146114005760405162461bcd60e51b815260206004820152601560248201527441756374696f6e20656e64656420616c726561647960581b60448201526064016105a5565b600082815260056020908152604080832060038101805460ff1916600117905560060192909255815184815242918101919091527f0c368e4cdd0e23707857d20056076efe6f588f9ce71ab6ce676d331fdc035f5b9101610b6d565b600380546000918261146d83612f3a565b9091555050604080518082018252600380548083526001600160a01b039586166020808501918252600092835260079052939020915182559151600190910180546001600160a01b0319169190941617909255505490565b8060025410156114d457600080fd5b60008181526006602052604090206005015461010090046001600160a01b031633148061150b57506000546001600160a01b031633145b61151457600080fd5b60005b60008281526006602090815260408083206005015461010090046001600160a01b031683526009909152902054811015611b88576000828152600660209081526040808320600381015460059091015461010090046001600160a01b03168452600990925290912080548390811061159157611591612f05565b90600052602060002090600502016002015411611b35576000828152600660209081526040808320600481015460059091015461010090046001600160a01b03168452600990925282208054849081106115ed576115ed612f05565b9060005260206000209060050201600201546116099190612f1b565b60008481526006602090815260408083206005015461010090046001600160a01b0316835260099091528120805492935090918391908590811061164f5761164f612f05565b90600052602060002090600502016004015461166b9190612faf565b60008581526006602090815260408083206005015461010090046001600160a01b0316835260099091529020805491925090849081106116ad576116ad612f05565b9060005260206000209060050201600201546006600086815260200190815260200160002060030160008282546116e49190612faf565b909155505060008481526006602090815260408083206005015461010090046001600160a01b031683526009909152812080548590811061172757611727612f05565b600091825260208083206005928302016002015488845260069091526040909220015490915061010090046001600160a01b0316611763612c43565b6000805b848110156119a7576001600160a01b0384166000908152600a602052604081205461179490600190612faf565b90506117c16040518060800160405280600081526020016000815260200160008152602001600081525090565b6001600160a01b0386166000908152600a602052604090208054839081106117eb576117eb612f05565b6000918252602080832060049092029091015483528281018d90526001600160a01b0388168252600a90526040902080548390811061182c5761182c612f05565b906000526020600020906004020160020154816040018181525050600a6000876001600160a01b03166001600160a01b03168152602001908152602001600020828154811061187d5761187d612f05565b600091825260208083206003600490930201919091015460608401526001600160a01b038816825260099052604081208054600b929190859081106118c4576118c4612f05565b60009182526020808320600160059093020182015484528381019490945260409283018220805480830182559083528483208651600490920201908155858501519181019190915584830151600282015560608501516003909101556001600160a01b0389168152600a909252902080548061194257611942612fc2565b60008281526020812060046000199093019283020181815560018101829055600281018290556003015590558051858561197b81612f3a565b96506064811061198d5761198d612f05565b60200201525081905061199f81612f3a565b915050611767565b506000888152600660205260409020600501546119d29061010090046001600160a01b031687612a30565b60008881526006602090815260408083206005015461010090046001600160a01b03168352600990915281208054611a4e9260079290918b908110611a1957611a19612f05565b60009182526020808320600160059093020182015484528301939093526040909101902001546001600160a01b031686612a30565b60008881526006602090815260408083206005015461010090046001600160a01b031683526009909152902080547f1aff87a36f8ab51e6d00c79e403e67535da25af06a6dc7b9cac3fc96a25cbfb3918a918a908110611ab057611ab0612f05565b60009182526020808320600592830201600101548d84526006825260408085209093015461010090046001600160a01b031684526009909152912080548b908110611afd57611afd612f05565b9060005260206000209060050201600201548986604051611b22959493929190612fd8565b60405180910390a1505050505050611b76565b60405162461bcd60e51b81526020600482015260166024820152755175616e74697479206e6f7420417661696c61626c6560501b60448201526064016105a5565b80611b8081612f3a565b915050611517565b505b60008181526006602090815260408083206005015461010090046001600160a01b03168352600990915290205415611c3a5760008181526006602090815260408083206005015461010090046001600160a01b0316835260099091529020805480611bf757611bf7612fc2565b60008281526020812060056000199093019283020181815560018101829055600281018290556003810180546001600160a01b0319169055600401559055611b8a565b50565b60008281526006602052604090206005015461010090046001600160a01b0316331480611c7457506000546001600160a01b031633145b611cb75760405162461bcd60e51b815260206004820152601460248201527343616e6e6f742062652073657420627920796f7560601b60448201526064016105a5565b60009182526006602052604090912060040155565b600081831015611cdc5782611cde565b815b9392505050565b6000600154821115611d095760405162461bcd60e51b81526004016105a590612f7f565b6001600083815260056020526040902060039081015460ff1690811115611d3257611d32612d36565b14611d7a5760405162461bcd60e51b815260206004820152601860248201527752657665616c207068617365206e6f742072756e6e696e6760401b60448201526064016105a5565b60008281526005602052604081206003908101805460ff191690911790555b60008381526005602090815260408083206003015461010090046001600160a01b03168352600890915290205481101561215b5760005b818110156121485760008481526005602090815260408083206003015461010090046001600160a01b0316835260089091529020805482908110611e1657611e16612f05565b60009182526020808320600a90920290910154868352600582526040808420600301546001600160a01b0361010090910416845260089092529120805484908110611e6357611e63612f05565b90600052602060002090600a02016000015410156121365760008481526005602090815260408083206003015461010090046001600160a01b0316835260089091528120805484908110611eb957611eb9612f05565b600091825260208083206040805161014081018252600a9094029091018054845260018101548484015260028101546001600160a01b039081168584015260038083015460608701526004830154608087015260058084015460a0880152600684015460c0880152600784015460e0880152600880850154610100808a019190915260099095015460ff1615156101208901528d8952908652848820909101549290920416855290915290912080549192509083908110611f7c57611f7c612f05565b60009182526020808320888452600582526040808520600301546001600160a01b03610100909104168552600890925292208054600a909202909201919085908110611fca57611fca612f05565b600091825260208083208454600a909302019182556001808501549083015560028085015490830180546001600160a01b0319166001600160a01b0392831617905560038086015481850155600480870154908501556005808701548186015560068088015490860155600780880154908601556008808801548187015560099788015497909501805460ff909816151560ff19909816979097179096558a85529482526040808520909501546101009004168352522080548291908490811061209657612096612f05565b60009182526020918290208351600a929092020190815590820151600182015560408201516002820180546001600160a01b0319166001600160a01b03909216919091179055606082015160038201556080820151600482015560a0820151600582015560c0820151600682015560e082015160078201556101008201516008820155610120909101516009909101805460ff1916911515919091179055505b8061214081612f3a565b915050611dd0565b508061215381612f3a565b915050611d99565b50612164612c43565b61216c612c43565b612174612c43565b60005b60008681526005602090815260408083206003015461010090046001600160a01b0316835260089091529020548110156123ca5760008681526005602090815260408083206003015461010090046001600160a01b03168352600890915281208054839081106121e9576121e9612f05565b600091825260208083206040805161014081018252600a9094029091018054845260018101549284019290925260028201546001600160a01b0316908301526003810154606083015260048101546080830152600581015460a0830152600681015460c0830152600781015460e083015260088101546101008301526009015460ff1615156101208201819052909250900361228557506123b8565b806101000151838260c00151606481106122a1576122a1612f05565b60200201818152505060006122d0600560008a8152602001908152602001600020600201548360a00151611ccc565b90506122e0818360200151611ccc565b90508160000151868360c00151606481106122fd576122fd612f05565b602002015260c0820151819086906064811061231b5761231b612f05565b60200201818152505080600560008a8152602001908152602001600020600201600082825461234a9190612faf565b909155505060008881526005602090815260408083206003015461010090046001600160a01b031683526008909152902080548291908590811061239057612390612f05565b90600052602060002090600a020160010160008282546123b09190612faf565b909155505050505b806123c281612f3a565b915050612177565b5060005b60008681526005602090815260408083206003015461010090046001600160a01b0316835260089091529020548110156125cc5760008681526005602090815260408083206003015461010090046001600160a01b031683526008909152812080548390811061244057612440612f05565b600091825260208083206040805161014081018252600a9094029091018054845260018101549284019290925260028201546001600160a01b0316908301526003810154606083015260048101546080830152600581015460a0830152600681015460c0830152600781015460e083015260088101546101008301526009015460ff161515610120820181905290925090036124dc57506125ba565b6000878152600560209081526040822060020154908301516124fe9190611ccc565b905080858360c001516064811061251757612517612f05565b602002018181516125289190612ef2565b9052506000888152600560205260408120600201805483929061254c908490612faf565b909155505060008881526005602090815260408083206003015461010090046001600160a01b031683526008909152902080548291908590811061259257612592612f05565b90600052602060002090600a020160010160008282546125b29190612faf565b909155505050505b806125c481612f3a565b9150506123ce565b5060015b60025481116127ce5760008382606481106125ed576125ed612f05565b602002015111156127bc577f389cc4d2b135e7b676a809ad7bacdde1b644b0bbe73afdd545a176ea73b95517868285846064811061262d5761262d612f05565b602002015187856064811061264457612644612f05565b60200201516040516126599493929190612ec1565b60405180910390a16000818152600660205260409020600501546126de9061010090046001600160a01b031684836064811061269757612697612f05565b60200201518684606481106126ae576126ae612f05565b60200201516126bd9190612f1b565b8484606481106126cf576126cf612f05565b60200201516104f59190612faf565b60008681526005602052604090206003015461273a9061010090046001600160a01b031684836064811061271457612714612f05565b602002015186846064811061272b5761272b612f05565b60200201516104f59190612f1b565b6000868152600560205260409020600190810154900361277e576127798184836064811061276a5761276a612f05565b60200201516000896000612a98565b6127bc565b600086815260056020526040902060010154600203610110576127798160008584606481106127af576127af612f05565b602002015160008a612a98565b806127c681612f3a565b9150506125d0565b505b60008581526005602090815260408083206003015461010090046001600160a01b031683526008909152902054156128ab5760008581526005602090815260408083206003015461010090046001600160a01b031683526008909152902080548061283d5761283d612fc2565b600082815260208120600a60001990930192830201818155600181018290556002810180546001600160a01b031916905560038101829055600481018290556005810182905560068101829055600781018290556008810191909155600901805460ff1916905590556127d0565b5042949350505050565b60008060008060005b6000878152600b60205260409020548110156129cf576000878152600b602052604090208054879190839081106128f7576128f7612f05565b906000526020600020906004020160000154036129bd576000878152600b6020526040902080548791908390811061293157612931612f05565b906000526020600020906004020160010154600b60008a8152602001908152602001600020838154811061296757612967612f05565b906000526020600020906004020160020154600b60008b8152602001908152602001600020848154811061299d5761299d612f05565b906000526020600020906004020160030154945094509450945050612a27565b806129c781612f3a565b9150506128be565b5060405162461bcd60e51b815260206004820152602660248201527f436172206e6f7420666f756e6420696e2074686579206275796572732070757260448201526563686173657360d01b60648201526084016105a5565b92959194509250565b6040516001600160a01b0383169082156108fc029083906000818181858888f19350505050612a945760405162461bcd60e51b815260206004820152601060248201526f5472616e73666572206661696c65642160801b60448201526064016105a5565b5050565b60008581526006602052604081206001018054869290612ab9908490612ef2565b909155505060008581526006602052604081206002018054859290612adf908490612ef2565b909155505060008581526006602052604081206001810154600290910154612b079190611ccc565b905080600660008881526020019081526020016000206001016000828254612b2f9190612faf565b909155505060008681526006602052604081206002018054839290612b55908490612faf565b909155505060008681526006602052604081206003018054839290612b7b908490612ef2565b92505081905550612bad6040518060800160405280600081526020016000815260200160008152602001600081525090565b60048054906000612bbd83612f3a565b9091555050600480548252602080830189815260408085018b815260036060870181815260009d8e5260068652838e206005015461010090046001600160a01b03168e52600a8652928d20805460018082018355918f5295909d209651949095029095019283559051998201999099559151600283015596519601959095555050505050565b60405180610c8001604052806064906020820280368337509192915050565b60008060408385031215612c7557600080fd5b50508035926020909101359150565b60008060008060808587031215612c9a57600080fd5b5050823594602084013594506040840135936060013592509050565b600060208284031215612cc857600080fd5b5035919050565b600080600080600060a08688031215612ce757600080fd5b505083359560208501359550604085013594606081013594506080013592509050565b600080600060608486031215612d1f57600080fd5b505081359360208301359350604090920135919050565b634e487b7160e01b600052602160045260246000fd5b60048110612d6a57634e487b7160e01b600052602160045260246000fd5b9052565b6000610140820190508b82528a6020830152896040830152886060830152876080830152612d9f60a0830188612d4c565b6001600160a01b039590951660c082015260e0810193909352610100830191909152610120909101529695505050505050565b6001600160a01b0381168114611c3a57600080fd5b60008060008060808587031215612dfd57600080fd5b84359350602085013592506040850135612e1681612dd2565b9396929550929360600135925050565b60008060408385031215612e3957600080fd5b8235612e4481612dd2565b946020939093013593505050565b600060208284031215612e6457600080fd5b8135611cde81612dd2565b88815260208101889052604081018790526101008101612e926060830188612d4c565b6001600160a01b0395909516608082015260a081019390935260c083019190915260e090910152949350505050565b93845260208401929092526040830152606082015260800190565b634e487b7160e01b600052601160045260246000fd5b8082018082111561136a5761136a612edc565b634e487b7160e01b600052603260045260246000fd5b6000816000190483118215151615612f3557612f35612edc565b500290565b600060018201612f4c57612f4c612edc565b5060010190565b602080825260129082015271155cd95c88191bd95cdb89dd08195e1a5cdd60721b604082015260600190565b60208082526016908201527514dd5c1c1b1a595c88191bd95cdb89dd08195e1a5cdd60521b604082015260600190565b8181038181111561136a5761136a612edc565b634e487b7160e01b600052603160045260246000fd5b6000610d008201905086825260208681840152856040840152846060840152608083018460005b606481101561301c57815183529183019190830190600101612fff565b50505050969550505050505056fea2646970667358221220b83975bdedbaef1f08dc2ea04e65cec18496a1f9588e00f0c7f8df720ce0dd3264736f6c63430008100033",
  "immutableReferences": {},
  "source": "pragma solidity >=0.8.16;\n\nimport {MarketPlace_Bidding} from \"./MarketPlace_Bidding.sol\";\n\ncontract MarketPlace_CustomerInterface is MarketPlace_Bidding {\n    constructor() {\n        owner = payable(msg.sender);\n        num_manufacturer = 0;\n        num_supplier = 0;\n        num_customer = 0;\n    }\n\n    function customerPurchase(\n        uint256 customerID,\n        uint256 manufacturerID,\n        uint256 quantity\n    ) external payable {\n        require(\n            customers[customerID].wallet == msg.sender || owner == msg.sender,\n            \"Access Denied\"\n        );\n        Purchase memory newpurchase;\n        newpurchase.sellerID = manufacturerID;\n        newpurchase.customeraddr = payable(msg.sender);\n        newpurchase.quantity = quantity;\n        newpurchase.buyerID = customerID;\n        newpurchase.money = msg.value;\n        uint256 unit_cost = manufacturers[manufacturerID].carsprice;\n        uint256 total_cost = unit_cost * quantity;\n        require(newpurchase.money >= total_cost, \"Money not enough\");\n        address manf_adrr = manufacturers[manufacturerID].wallet;\n        purchasesTillNow[manf_adrr].push(newpurchase);\n        emit CustomerRequest(\n            customerID,\n            manufacturerID,\n            quantity,\n            manufacturers[manufacturerID].carsprice\n        );\n    }\n\n    function manufacturerSupplyCars(uint256 manufacturerID) public {\n        require(num_manufacturer >= manufacturerID);\n        require(\n            msg.sender == manufacturers[manufacturerID].wallet ||\n                msg.sender == owner\n        );\n        for (\n            uint256 i = 0;\n            i < purchasesTillNow[manufacturers[manufacturerID].wallet].length;\n            i++\n        ) {\n            //Money is already checked, Quantity check is done here\n            if (\n                purchasesTillNow[manufacturers[manufacturerID].wallet][i]\n                    .quantity <= manufacturers[manufacturerID].cars\n            ) {\n                uint256 effective_price = purchasesTillNow[\n                    manufacturers[manufacturerID].wallet\n                ][i].quantity * manufacturers[manufacturerID].carsprice;\n                uint256 refund_amount = purchasesTillNow[\n                    manufacturers[manufacturerID].wallet\n                ][i].money - effective_price;\n\n                manufacturers[manufacturerID].cars -= purchasesTillNow[\n                    manufacturers[manufacturerID].wallet\n                ][i].quantity;\n                uint256 num_of_cars = purchasesTillNow[\n                    manufacturers[manufacturerID].wallet\n                ][i].quantity;\n                address mf_adrr = manufacturers[manufacturerID].wallet;\n                uint256[100] memory carTags;\n                uint256 carTagsIdx = 0;\n                for (uint256 j = 0; j < num_of_cars; j++) {\n                    uint256 idx = productsTillNow[mf_adrr].length - 1;\n                    Car memory newcar;\n                    newcar.tag = productsTillNow[mf_adrr][idx].tag;\n                    newcar.manufacturerID = manufacturerID;\n                    newcar.sellerIDA = productsTillNow[mf_adrr][idx].sellerA;\n                    newcar.sellerIDB = productsTillNow[mf_adrr][idx].sellerB;\n                    carsBought[purchasesTillNow[mf_adrr][idx].buyerID].push(\n                        newcar\n                    );\n                    productsTillNow[mf_adrr].pop();\n                    carTags[carTagsIdx++] = newcar.tag;\n                }\n                transferMoney(\n                    manufacturers[manufacturerID].wallet,\n                    effective_price\n                );\n                transferMoney(\n                    customers[\n                        purchasesTillNow[manufacturers[manufacturerID].wallet][\n                            i\n                        ].buyerID\n                    ].wallet,\n                    refund_amount\n                );\n                // refundMoney(\n                // customers[purchasesTillNow[manufacturers[manufacturerID].wallet][i].buyerID].wallet,\n                // refund_amount);\n                emit AllocateFromManufacturer(\n                    manufacturerID,\n                    purchasesTillNow[manufacturers[manufacturerID].wallet][i]\n                        .buyerID,\n                    purchasesTillNow[manufacturers[manufacturerID].wallet][i]\n                        .quantity,\n                    effective_price,\n                    carTags\n                );\n            } else {\n                //send them back the amount saying quantity not available\n                revert(\"Quantity not Available\"); //gas to caller\n            }\n        }\n        while (\n            purchasesTillNow[manufacturers[manufacturerID].wallet].length > 0\n        ) purchasesTillNow[manufacturers[manufacturerID].wallet].pop();\n    }\n\n    function addSupplier(\n        int256 partType,\n        uint256 quantityAvailable,\n        address payable addr,\n        uint256 auctionBidders\n    ) public returns (uint256 tag) {\n        num_supplier++;\n        suppliers[num_supplier] = Supplier(\n            num_supplier,\n            partType,\n            quantityAvailable,\n            AuctionState.NOT_STARTED,\n            addr,\n            auctionBidders,\n            0,\n            0\n        );\n        return num_supplier;\n    }\n\n    function addManufacturer(address payable addr, uint256 auctionBidders)\n        public\n        returns (uint256 tag)\n    {\n        num_manufacturer++;\n        manufacturers[num_manufacturer] = Manufacturer(\n            num_manufacturer,\n            0,\n            0,\n            0,\n            0,\n            AuctionState.NOT_STARTED,\n            addr,\n            auctionBidders,\n            0,\n            0\n        );\n        return num_manufacturer;\n    }\n\n    function addCustomer(address payable addr) public returns (uint256 tag) {\n        num_customer++;\n        customers[num_customer] = Customer(num_customer, addr);\n        return num_customer;\n    }\n\n    function verifyproduct(uint256 customerID, uint256 car_tag)\n        public\n        view\n        returns (\n            uint256 carID,\n            uint256 manfID,\n            uint256 sellerIDA,\n            uint256 sellerIDB\n        )\n    {\n        for (uint256 i = 0; i < carsBought[customerID].length; i++) {\n            if (carsBought[customerID][i].tag == car_tag)\n                return (\n                    car_tag,\n                    carsBought[customerID][i].manufacturerID,\n                    carsBought[customerID][i].sellerIDA,\n                    carsBought[customerID][i].sellerIDB\n                );\n        }\n        require(0 == 1, \"Car not found in they buyers purchases\");\n        return (0, 0, 0, 0);\n    }\n}\n",
  "sourcePath": "/home/prince/Course_M22/BLOCKCHAIN/Supply-Chain-Smartcontract/contracts/MarketPlace_CustomerInterface.sol",
  "compiler": {
    "name": "solc",
    "version": "0.8.16+commit.07a7930e.Emscripten.clang"
  },
  "schemaVersion": "3.4.8",
  "updatedAt": "2022-09-16T14:59:39.610Z",
  "networkType": "ethereum",
  "devdoc": {
    "kind": "dev",
    "methods": {},
    "version": 1
  },
  "userdoc": {
    "kind": "user",
    "methods": {},
    "version": 1
  }
}