{
  "contractName": "MarketPlace_Bidding",
  "abi": [
    {
      "anonymous": false,
      "inputs": [
        {
          "indexed": false,
          "internalType": "uint256",
          "name": "manufacturerID",
          "type": "uint256"
        },
        {
          "indexed": false,
          "internalType": "uint256",
          "name": "customerID",
          "type": "uint256"
        },
        {
          "indexed": false,
          "internalType": "uint256",
          "name": "quantity",
          "type": "uint256"
        },
        {
          "indexed": false,
          "internalType": "uint256",
          "name": "price",
          "type": "uint256"
        },
        {
          "indexed": false,
          "internalType": "uint256[100]",
          "name": "carTag",
          "type": "uint256[100]"
        }
      ],
      "name": "AllocateFromManufacturer",
      "type": "event"
    },
    {
      "anonymous": false,
      "inputs": [
        {
          "indexed": false,
          "internalType": "uint256",
          "name": "supplierID",
          "type": "uint256"
        },
        {
          "indexed": false,
          "internalType": "uint256",
          "name": "manufacturerID",
          "type": "uint256"
        },
        {
          "indexed": false,
          "internalType": "uint256",
          "name": "quantity",
          "type": "uint256"
        },
        {
          "indexed": false,
          "internalType": "uint256",
          "name": "price",
          "type": "uint256"
        }
      ],
      "name": "AllocateFromSupplier",
      "type": "event"
    },
    {
      "anonymous": false,
      "inputs": [
        {
          "indexed": false,
          "internalType": "uint256",
          "name": "CustomerID",
          "type": "uint256"
        },
        {
          "indexed": false,
          "internalType": "uint256",
          "name": "ManufacturerID",
          "type": "uint256"
        },
        {
          "indexed": false,
          "internalType": "uint256",
          "name": "Quantity",
          "type": "uint256"
        },
        {
          "indexed": false,
          "internalType": "uint256",
          "name": "Price",
          "type": "uint256"
        }
      ],
      "name": "CustomerRequest",
      "type": "event"
    },
    {
      "anonymous": false,
      "inputs": [
        {
          "indexed": false,
          "internalType": "uint256",
          "name": "manufacturerID",
          "type": "uint256"
        },
        {
          "indexed": false,
          "internalType": "uint256",
          "name": "endTime",
          "type": "uint256"
        }
      ],
      "name": "EndManufacturerAuction",
      "type": "event"
    },
    {
      "anonymous": false,
      "inputs": [
        {
          "indexed": false,
          "internalType": "uint256",
          "name": "supplierID",
          "type": "uint256"
        },
        {
          "indexed": false,
          "internalType": "uint256",
          "name": "endTime",
          "type": "uint256"
        }
      ],
      "name": "EndSupplierAuction",
      "type": "event"
    },
    {
      "anonymous": false,
      "inputs": [
        {
          "indexed": false,
          "internalType": "uint256",
          "name": "supplierID",
          "type": "uint256"
        },
        {
          "indexed": false,
          "internalType": "uint256",
          "name": "manufacturerID",
          "type": "uint256"
        },
        {
          "indexed": false,
          "internalType": "bytes32",
          "name": "blindBidPrice",
          "type": "bytes32"
        },
        {
          "indexed": false,
          "internalType": "bytes32",
          "name": "blindBidQuantity",
          "type": "bytes32"
        }
      ],
      "name": "ManufacturerBids",
      "type": "event"
    },
    {
      "anonymous": false,
      "inputs": [
        {
          "indexed": false,
          "internalType": "uint256",
          "name": "supplierID",
          "type": "uint256"
        },
        {
          "indexed": false,
          "internalType": "uint256",
          "name": "manufacturerID",
          "type": "uint256"
        },
        {
          "indexed": false,
          "internalType": "uint256",
          "name": "price",
          "type": "uint256"
        },
        {
          "indexed": false,
          "internalType": "uint256",
          "name": "quantity",
          "type": "uint256"
        }
      ],
      "name": "ManufacturerReveal",
      "type": "event"
    },
    {
      "anonymous": false,
      "inputs": [
        {
          "indexed": false,
          "internalType": "uint256",
          "name": "manufacturerID",
          "type": "uint256"
        },
        {
          "indexed": false,
          "internalType": "uint256",
          "name": "startTime",
          "type": "uint256"
        }
      ],
      "name": "StartManufacturerAuction",
      "type": "event"
    },
    {
      "anonymous": false,
      "inputs": [
        {
          "indexed": false,
          "internalType": "uint256",
          "name": "supplierID",
          "type": "uint256"
        },
        {
          "indexed": false,
          "internalType": "uint256",
          "name": "startTime",
          "type": "uint256"
        }
      ],
      "name": "StartSupplierAuction",
      "type": "event"
    },
    {
      "inputs": [
        {
          "internalType": "uint256",
          "name": "",
          "type": "uint256"
        }
      ],
      "name": "customers",
      "outputs": [
        {
          "internalType": "uint256",
          "name": "_tag",
          "type": "uint256"
        },
        {
          "internalType": "address",
          "name": "wallet",
          "type": "address"
        }
      ],
      "stateMutability": "view",
      "type": "function"
    },
    {
      "inputs": [
        {
          "internalType": "uint256",
          "name": "",
          "type": "uint256"
        }
      ],
      "name": "manufacturers",
      "outputs": [
        {
          "internalType": "uint256",
          "name": "_tag",
          "type": "uint256"
        },
        {
          "internalType": "uint256",
          "name": "quantityA",
          "type": "uint256"
        },
        {
          "internalType": "uint256",
          "name": "quantityB",
          "type": "uint256"
        },
        {
          "internalType": "uint256",
          "name": "cars",
          "type": "uint256"
        },
        {
          "internalType": "uint256",
          "name": "carsprice",
          "type": "uint256"
        },
        {
          "internalType": "enum MarketPlace_Structures.AuctionState",
          "name": "currentState",
          "type": "uint8"
        },
        {
          "internalType": "address",
          "name": "wallet",
          "type": "address"
        },
        {
          "internalType": "uint256",
          "name": "maxBidders",
          "type": "uint256"
        },
        {
          "internalType": "uint256",
          "name": "QA_sellerID",
          "type": "uint256"
        },
        {
          "internalType": "uint256",
          "name": "QB_sellerID",
          "type": "uint256"
        }
      ],
      "stateMutability": "view",
      "type": "function"
    },
    {
      "inputs": [
        {
          "internalType": "uint256",
          "name": "a",
          "type": "uint256"
        },
        {
          "internalType": "uint256",
          "name": "b",
          "type": "uint256"
        }
      ],
      "name": "minimum",
      "outputs": [
        {
          "internalType": "uint256",
          "name": "",
          "type": "uint256"
        }
      ],
      "stateMutability": "pure",
      "type": "function"
    },
    {
      "inputs": [],
      "name": "num_customer",
      "outputs": [
        {
          "internalType": "uint256",
          "name": "",
          "type": "uint256"
        }
      ],
      "stateMutability": "view",
      "type": "function"
    },
    {
      "inputs": [],
      "name": "num_manufacturer",
      "outputs": [
        {
          "internalType": "uint256",
          "name": "",
          "type": "uint256"
        }
      ],
      "stateMutability": "view",
      "type": "function"
    },
    {
      "inputs": [],
      "name": "num_products",
      "outputs": [
        {
          "internalType": "uint256",
          "name": "",
          "type": "uint256"
        }
      ],
      "stateMutability": "view",
      "type": "function"
    },
    {
      "inputs": [],
      "name": "num_supplier",
      "outputs": [
        {
          "internalType": "uint256",
          "name": "",
          "type": "uint256"
        }
      ],
      "stateMutability": "view",
      "type": "function"
    },
    {
      "inputs": [],
      "name": "owner",
      "outputs": [
        {
          "internalType": "address payable",
          "name": "",
          "type": "address"
        }
      ],
      "stateMutability": "view",
      "type": "function"
    },
    {
      "inputs": [
        {
          "internalType": "uint256",
          "name": "",
          "type": "uint256"
        }
      ],
      "name": "suppliers",
      "outputs": [
        {
          "internalType": "uint256",
          "name": "tag",
          "type": "uint256"
        },
        {
          "internalType": "int256",
          "name": "partType",
          "type": "int256"
        },
        {
          "internalType": "uint256",
          "name": "quantityAvailable",
          "type": "uint256"
        },
        {
          "internalType": "enum MarketPlace_Structures.AuctionState",
          "name": "currentState",
          "type": "uint8"
        },
        {
          "internalType": "address",
          "name": "wallet",
          "type": "address"
        },
        {
          "internalType": "uint256",
          "name": "maxBidders",
          "type": "uint256"
        },
        {
          "internalType": "uint256",
          "name": "bidsPlaced",
          "type": "uint256"
        },
        {
          "internalType": "uint256",
          "name": "bidsRevealed",
          "type": "uint256"
        }
      ],
      "stateMutability": "view",
      "type": "function"
    },
    {
      "inputs": [
        {
          "internalType": "address",
          "name": "senderaddr",
          "type": "address"
        },
        {
          "internalType": "uint256",
          "name": "effectivePrice",
          "type": "uint256"
        }
      ],
      "name": "transferMoney",
      "outputs": [],
      "stateMutability": "payable",
      "type": "function"
    },
    {
      "inputs": [
        {
          "internalType": "uint256",
          "name": "tag",
          "type": "uint256"
        }
      ],
      "name": "supplierStartAuction",
      "outputs": [
        {
          "internalType": "uint256",
          "name": "",
          "type": "uint256"
        }
      ],
      "stateMutability": "nonpayable",
      "type": "function"
    },
    {
      "inputs": [
        {
          "internalType": "uint256",
          "name": "tag",
          "type": "uint256"
        }
      ],
      "name": "supplierEndAuction",
      "outputs": [
        {
          "internalType": "uint256",
          "name": "",
          "type": "uint256"
        }
      ],
      "stateMutability": "nonpayable",
      "type": "function"
    },
    {
      "inputs": [
        {
          "internalType": "uint256",
          "name": "tag",
          "type": "uint256"
        }
      ],
      "name": "supplierEndReveal",
      "outputs": [
        {
          "internalType": "uint256",
          "name": "",
          "type": "uint256"
        }
      ],
      "stateMutability": "nonpayable",
      "type": "function"
    },
    {
      "inputs": [
        {
          "internalType": "uint256",
          "name": "manufacturerID",
          "type": "uint256"
        },
        {
          "internalType": "uint256",
          "name": "supplierID",
          "type": "uint256"
        },
        {
          "internalType": "bytes32",
          "name": "blindPrice",
          "type": "bytes32"
        },
        {
          "internalType": "bytes32",
          "name": "blindQuantity",
          "type": "bytes32"
        },
        {
          "internalType": "uint256",
          "name": "limit",
          "type": "uint256"
        }
      ],
      "name": "manufacturerPlacesBid",
      "outputs": [],
      "stateMutability": "payable",
      "type": "function"
    },
    {
      "inputs": [
        {
          "internalType": "uint256",
          "name": "manufacturerID",
          "type": "uint256"
        },
        {
          "internalType": "uint256",
          "name": "supplierID",
          "type": "uint256"
        },
        {
          "internalType": "uint256",
          "name": "price",
          "type": "uint256"
        },
        {
          "internalType": "uint256",
          "name": "quantity",
          "type": "uint256"
        }
      ],
      "name": "manufactuerRevealBid",
      "outputs": [
        {
          "internalType": "bool",
          "name": "",
          "type": "bool"
        }
      ],
      "stateMutability": "nonpayable",
      "type": "function"
    },
    {
      "inputs": [
        {
          "internalType": "uint256",
          "name": "suppliedID",
          "type": "uint256"
        },
        {
          "internalType": "uint256",
          "name": "quantityToAdd",
          "type": "uint256"
        }
      ],
      "name": "supplierAddQuantity",
      "outputs": [],
      "stateMutability": "nonpayable",
      "type": "function"
    },
    {
      "inputs": [
        {
          "internalType": "uint256",
          "name": "manufacturerID",
          "type": "uint256"
        },
        {
          "internalType": "uint256",
          "name": "price",
          "type": "uint256"
        }
      ],
      "name": "set_cars_price",
      "outputs": [],
      "stateMutability": "nonpayable",
      "type": "function"
    }
  ],
  "bytecode": "0x608060405234801561001057600080fd5b506120dd806100206000396000f3fe6080604052600436106100ce5760003560e01c80630cf3750d146100d35780631788b2d9146100f557806317c9dea61461012a57806318c15d42146101585780634cc9aff81461016b5780638da5cb5b1461018157806390175af1146101b9578063aa8613c414610247578063c040521714610267578063c0abda2a1461027d578063cea23121146102d7578063d6470b4914610356578063dd2d2a1214610376578063e2416a2c14610396578063eb16d0e4146103b6578063edcac78b146103cc578063fee666ad146103e2575b600080fd5b3480156100df57600080fd5b506100f36100ee366004611dc2565b6103f5565b005b34801561010157600080fd5b50610115610110366004611de4565b610459565b60405190151581526020015b60405180910390f35b34801561013657600080fd5b5061014a610145366004611e16565b610975565b604051908152602001610121565b6100f3610166366004611e2f565b610a77565b34801561017757600080fd5b5061014a60025481565b34801561018d57600080fd5b506000546101a1906001600160a01b031681565b6040516001600160a01b039091168152602001610121565b3480156101c557600080fd5b506102316101d4366004611e16565b60066020819052600091825260409091208054600182015460028301546003840154600485015460058601549686015460078701546008909701549597949693959294919360ff8316936101009093046001600160a01b0316928a565b6040516101219a99989796959493929190611ea2565b34801561025357600080fd5b5061014a610262366004611e16565b610e2a565b34801561027357600080fd5b5061014a60045481565b34801561028957600080fd5b506102ba610298366004611e16565b600760205260009081526040902080546001909101546001600160a01b031682565b604080519283526001600160a01b03909116602083015201610121565b3480156102e357600080fd5b506103426102f2366004611e16565b6005602081905260009182526040909120805460018201546002830154600384015460048501549585015460069095015493959294919360ff8216936101009092046001600160a01b0316929088565b604051610121989796959493929190611f06565b34801561036257600080fd5b506100f3610371366004611dc2565b610f16565b34801561038257600080fd5b5061014a610391366004611dc2565b610fa5565b3480156103a257600080fd5b5061014a6103b1366004611e16565b610fc0565b3480156103c257600080fd5b5061014a60035481565b3480156103d857600080fd5b5061014a60015481565b6100f36103f0366004611f58565b611b90565b60008281526005602052604090206003015461010090046001600160a01b0316331461042057600080fd5b81600154101561042f57600080fd5b60008281526005602052604081206002018054839290610450908490611fa6565b90915550505050565b60006002548511156104a95760405162461bcd60e51b815260206004820152601460248201527324b73b30b634b21036b0b73ab330b1ba3ab932b960611b60448201526064015b60405180910390fd5b6001600085815260056020526040902060039081015460ff16908111156104d2576104d2611e6a565b146104dc57600080fd5b60005b60008581526005602090815260408083206003015461010090046001600160a01b0316835260089091529020548110156109675760008581526005602090815260408083206003015461010090046001600160a01b031683526008909152902080548791908390811061055457610554611fb9565b90600052602060002090600a020160060154036109555760008581526005602090815260408083206003015461010090046001600160a01b03168352600890915290208054829081106105a9576105a9611fb9565b90600052602060002090600a020160030154846040516020016105ce91815260200190565b604051602081830303815290604052805190602001201461063f5760405162461bcd60e51b815260206004820152602560248201527f496e636f7272656374207072696365202d2d206b656570696e6720796f7572206044820152646d6f6e657960d81b60648201526084016104a0565b60008581526005602090815260408083206003015461010090046001600160a01b031683526008909152902080548290811061067d5761067d611fb9565b90600052602060002090600a020160040154836040516020016106a291815260200190565b60405160208183030381529060405280519060200120146107165760405162461bcd60e51b815260206004820152602860248201527f496e636f7272656374207175616e74697479202d2d206b656570696e6720796f6044820152677572206d6f6e657960c01b60648201526084016104a0565b60006107228486611fcf565b60008781526005602090815260408083206003015461010090046001600160a01b03168352600890915290208054919250908390811061076457610764611fb9565b90600052602060002090600a0201600801548111156107db5760405162461bcd60e51b815260206004820152602d60248201527f496e73756666696369656e742066756e64732073656e74202d2d206b6565706960448201526c6e6720796f7572206d6f6e657960981b60648201526084016104a0565b60008681526005602090815260408083206003015461010090046001600160a01b03168352600890915290208054600191908490811061081d5761081d611fb9565b60009182526020808320600a92909202909101600901805460ff1916931515939093179092558781526005825260408082206003015461010090046001600160a01b0316825260089092522080548691908490811061087e5761087e611fb9565b60009182526020808320600a90920290910192909255878152600582526040808220600301546001600160a01b036101009091041682526008909252208054859190849081106108d0576108d0611fb9565b90600052602060002090600a0201600101819055507fee291b467c1ae7dd29ffc047df3454190c09d3730496830a392209c7bc38f5ca8688878760405161091a9493929190611fee565b60405180910390a16000868152600560205260408120600601805460019290610944908490611fa6565b909155506001935061096d92505050565b8061095f81612009565b9150506104df565b50600090505b949350505050565b60006001548211156109995760405162461bcd60e51b81526004016104a090612022565b600082815260056020526040812060039081015460ff16908111156109c0576109c0611e6a565b03610a0b5760405162461bcd60e51b815260206004820152601b60248201527a41756374696f6e20696e2d70726f677265737320616c726561647960281b60448201526064016104a0565b600082815260056020818152604080842060038101805460ff19169055928301849055600690920192909255805184815242928101929092527f10449cff8425a2b933fdd57a667ad5bdad3da817ddd9179f125f5c7756582e1791015b60405180910390a15042919050565b846002541015610ac65760405162461bcd60e51b815260206004820152601a60248201527913585b9d599858dd1d5c995c88191bd95cdb89dd08195e1a5cdd60321b60448201526064016104a0565b836001541015610ae85760405162461bcd60e51b81526004016104a09061204e565b600084815260056020526040812060039081015460ff1690811115610b0f57610b0f611e6a565b14610b705760405162461bcd60e51b815260206004820152602b60248201527f537570706c6965722069736e27742072756e6e696e6720616e2061756374696f60448201526a6e207269676874206e6f7760a81b60648201526084016104a0565b84841480610b7e5750836003145b610bc55760405162461bcd60e51b8152602060048201526018602482015277537570706c69657220646f65736e742073656c6c20796f7560401b60448201526064016104a0565b6040805161014081018252600080825260208201819052918101829052606081018290526080810182905260a0810182905260c0810182905260e0810182905261010081018290526101208101919091523381604001906001600160a01b031690816001600160a01b0316815250503481610100018181525050858160c0018181525050848160e00181815250508381606001818152505082816080018181525050818160a00181815250506000816000018181525050600081602001818152505060008161012001901515908115158152505060006005600087815260200190815260200160002060030160019054906101000a90046001600160a01b0316905060086000826001600160a01b03166001600160a01b031681526020019081526020016000208290806001815401808255809150506001900390600052602060002090600a0201600090919091909150600082015181600001556020820151816001015560408201518160020160006101000a8154816001600160a01b0302191690836001600160a01b03160217905550606082015181600301556080820151816004015560a0820151816005015560c0820151816006015560e0820151816007015561010082015181600801556101208201518160090160006101000a81548160ff02191690831515021790555050506001600560008881526020019081526020016000206005016000828254610dde9190611fa6565b90915550506040517fdbd4ed8ca35fd076d8fdc3ddae80bf4fac4fc55dd918d5868cf2b92f82d2de5390610e199088908a9089908990611fee565b60405180910390a150505050505050565b6000600154821115610e4e5760405162461bcd60e51b81526004016104a090612022565b600082815260056020526040812060039081015460ff1690811115610e7557610e75611e6a565b14610eba5760405162461bcd60e51b815260206004820152601560248201527441756374696f6e20656e64656420616c726561647960581b60448201526064016104a0565b600082815260056020908152604080832060038101805460ff1916600117905560060192909255815184815242918101919091527f0c368e4cdd0e23707857d20056076efe6f588f9ce71ab6ce676d331fdc035f5b9101610a68565b60008281526006602052604090206005015461010090046001600160a01b0316331480610f4d57506000546001600160a01b031633145b610f905760405162461bcd60e51b815260206004820152601460248201527343616e6e6f742062652073657420627920796f7560601b60448201526064016104a0565b60009182526006602052604090912060040155565b600081831015610fb55782610fb7565b815b90505b92915050565b6000600154821115610fe45760405162461bcd60e51b81526004016104a09061204e565b6001600083815260056020526040902060039081015460ff169081111561100d5761100d611e6a565b146110555760405162461bcd60e51b815260206004820152601860248201527752657665616c207068617365206e6f742072756e6e696e6760401b60448201526064016104a0565b60008281526005602052604081206003908101805460ff191690911790555b60008381526005602090815260408083206003015461010090046001600160a01b0316835260089091529020548110156114365760005b818110156114235760008481526005602090815260408083206003015461010090046001600160a01b03168352600890915290208054829081106110f1576110f1611fb9565b60009182526020808320600a90920290910154868352600582526040808420600301546001600160a01b036101009091041684526008909252912080548490811061113e5761113e611fb9565b90600052602060002090600a02016000015410156114115760008481526005602090815260408083206003015461010090046001600160a01b031683526008909152812080548490811061119457611194611fb9565b600091825260208083206040805161014081018252600a9094029091018054845260018101548484015260028101546001600160a01b039081168584015260038083015460608701526004830154608087015260058084015460a0880152600684015460c0880152600784015460e0880152600880850154610100808a019190915260099095015460ff1615156101208901528d895290865284882090910154929092041685529091529091208054919250908390811061125757611257611fb9565b60009182526020808320888452600582526040808520600301546001600160a01b03610100909104168552600890925292208054600a9092029092019190859081106112a5576112a5611fb9565b600091825260208083208454600a909302019182556001808501549083015560028085015490830180546001600160a01b0319166001600160a01b0392831617905560038086015481850155600480870154908501556005808701548186015560068088015490860155600780880154908601556008808801548187015560099788015497909501805460ff909816151560ff19909816979097179096558a85529482526040808520909501546101009004168352522080548291908490811061137157611371611fb9565b60009182526020918290208351600a929092020190815590820151600182015560408201516002820180546001600160a01b0319166001600160a01b03909216919091179055606082015160038201556080820151600482015560a0820151600582015560c0820151600682015560e082015160078201556101008201516008820155610120909101516009909101805460ff1916911515919091179055505b8061141b81612009565b9150506110ab565b508061142e81612009565b915050611074565b5061143f611da3565b611447611da3565b61144f611da3565b60005b60008681526005602090815260408083206003015461010090046001600160a01b0316835260089091529020548110156116a55760008681526005602090815260408083206003015461010090046001600160a01b03168352600890915281208054839081106114c4576114c4611fb9565b600091825260208083206040805161014081018252600a9094029091018054845260018101549284019290925260028201546001600160a01b0316908301526003810154606083015260048101546080830152600581015460a0830152600681015460c0830152600781015460e083015260088101546101008301526009015460ff161515610120820181905290925090036115605750611693565b806101000151838260c001516064811061157c5761157c611fb9565b60200201818152505060006115ab600560008a8152602001908152602001600020600201548360a00151610fa5565b90506115bb818360200151610fa5565b90508160000151868360c00151606481106115d8576115d8611fb9565b602002015260c082015181908690606481106115f6576115f6611fb9565b60200201818152505080600560008a81526020019081526020016000206002016000828254611625919061207e565b909155505060008881526005602090815260408083206003015461010090046001600160a01b031683526008909152902080548291908590811061166b5761166b611fb9565b90600052602060002090600a0201600101600082825461168b919061207e565b909155505050505b8061169d81612009565b915050611452565b5060005b60008681526005602090815260408083206003015461010090046001600160a01b0316835260089091529020548110156118a75760008681526005602090815260408083206003015461010090046001600160a01b031683526008909152812080548390811061171b5761171b611fb9565b600091825260208083206040805161014081018252600a9094029091018054845260018101549284019290925260028201546001600160a01b0316908301526003810154606083015260048101546080830152600581015460a0830152600681015460c0830152600781015460e083015260088101546101008301526009015460ff161515610120820181905290925090036117b75750611895565b6000878152600560209081526040822060020154908301516117d99190610fa5565b905080858360c00151606481106117f2576117f2611fb9565b602002018181516118039190611fa6565b9052506000888152600560205260408120600201805483929061182790849061207e565b909155505060008881526005602090815260408083206003015461010090046001600160a01b031683526008909152902080548291908590811061186d5761186d611fb9565b90600052602060002090600a0201600101600082825461188d919061207e565b909155505050505b8061189f81612009565b9150506116a9565b5060015b6002548111611aa95760008382606481106118c8576118c8611fb9565b60200201511115611a97577f389cc4d2b135e7b676a809ad7bacdde1b644b0bbe73afdd545a176ea73b95517868285846064811061190857611908611fb9565b602002015187856064811061191f5761191f611fb9565b60200201516040516119349493929190611fee565b60405180910390a16000818152600660205260409020600501546119b99061010090046001600160a01b031684836064811061197257611972611fb9565b602002015186846064811061198957611989611fb9565b60200201516119989190611fcf565b8484606481106119aa576119aa611fb9565b60200201516103f0919061207e565b600086815260056020526040902060030154611a159061010090046001600160a01b03168483606481106119ef576119ef611fb9565b6020020151868460648110611a0657611a06611fb9565b60200201516103f09190611fcf565b60008681526005602052604090206001908101549003611a5957611a5481848360648110611a4557611a45611fb9565b60200201516000896000611bf8565b611a97565b6000868152600560205260409020600101546002036100ce57611a54816000858460648110611a8a57611a8a611fb9565b602002015160008a611bf8565b80611aa181612009565b9150506118ab565b505b60008581526005602090815260408083206003015461010090046001600160a01b03168352600890915290205415611b865760008581526005602090815260408083206003015461010090046001600160a01b0316835260089091529020805480611b1857611b18612091565b600082815260208120600a60001990930192830201818155600181018290556002810180546001600160a01b031916905560038101829055600481018290556005810182905560068101829055600781018290556008810191909155600901805460ff191690559055611aab565b5042949350505050565b6040516001600160a01b0383169082156108fc029083906000818181858888f19350505050611bf45760405162461bcd60e51b815260206004820152601060248201526f5472616e73666572206661696c65642160801b60448201526064016104a0565b5050565b60008581526006602052604081206001018054869290611c19908490611fa6565b909155505060008581526006602052604081206002018054859290611c3f908490611fa6565b909155505060008581526006602052604081206001810154600290910154611c679190610fa5565b905080600660008881526020019081526020016000206001016000828254611c8f919061207e565b909155505060008681526006602052604081206002018054839290611cb590849061207e565b909155505060008681526006602052604081206003018054839290611cdb908490611fa6565b92505081905550611d0d6040518060800160405280600081526020016000815260200160008152602001600081525090565b60048054906000611d1d83612009565b9091555050600480548252602080830189815260408085018b815260036060870181815260009d8e5260068652838e206005015461010090046001600160a01b03168e52600a8652928d20805460018082018355918f5295909d209651949095029095019283559051998201999099559151600283015596519601959095555050505050565b60405180610c8001604052806064906020820280368337509192915050565b60008060408385031215611dd557600080fd5b50508035926020909101359150565b60008060008060808587031215611dfa57600080fd5b5050823594602084013594506040840135936060013592509050565b600060208284031215611e2857600080fd5b5035919050565b600080600080600060a08688031215611e4757600080fd5b505083359560208501359550604085013594606081013594506080013592509050565b634e487b7160e01b600052602160045260246000fd5b60048110611e9e57634e487b7160e01b600052602160045260246000fd5b9052565b6000610140820190508b82528a6020830152896040830152886060830152876080830152611ed360a0830188611e80565b6001600160a01b039590951660c082015260e0810193909352610100830191909152610120909101529695505050505050565b88815260208101889052604081018790526101008101611f296060830188611e80565b6001600160a01b0395909516608082015260a081019390935260c083019190915260e090910152949350505050565b60008060408385031215611f6b57600080fd5b82356001600160a01b0381168114611f8257600080fd5b946020939093013593505050565b634e487b7160e01b600052601160045260246000fd5b80820180821115610fba57610fba611f90565b634e487b7160e01b600052603260045260246000fd5b6000816000190483118215151615611fe957611fe9611f90565b500290565b93845260208401929092526040830152606082015260800190565b60006001820161201b5761201b611f90565b5060010190565b602080825260129082015271155cd95c88191bd95cdb89dd08195e1a5cdd60721b604082015260600190565b60208082526016908201527514dd5c1c1b1a595c88191bd95cdb89dd08195e1a5cdd60521b604082015260600190565b81810381811115610fba57610fba611f90565b634e487b7160e01b600052603160045260246000fdfea26469706673582212203a3885d3dac6290fd1c8a0eb3b7f822f10baaa01de1a880f87700fbe85fb53b464736f6c63430008100033",
  "immutableReferences": {},
  "source": "pragma solidity >=0.8.16;\n\nimport {MarketPlace_Events} from \"./MarketPlace_Events.sol\";\n\ncontract MarketPlace_Bidding is MarketPlace_Events {\n    // @notice Transfer money to address\n    // @param senderaddr Wallet address of the person to send money to\n    // @param effectivePrice Amount to send\n    function transferMoney(address senderaddr, uint256 effectivePrice)\n        public\n        payable\n    {\n        // do eth transactions here\n        require(payable(senderaddr).send(effectivePrice), \"Transfer failed!\");\n    }\n\n    // @notice Supplier start their auction here\n    // @param tag Tag ID of the supplier\n    function supplierStartAuction(uint256 tag) public returns (uint256) {\n        require(tag <= num_supplier, \"User doesn't exist\");\n        require(\n            suppliers[tag].currentState != AuctionState.RUNNING,\n            \"Auction in-progress already\"\n        );\n\n        // TODO: UNCOMMENT THE FOLLOWING TO ENSURE PEOPLE ARE STARTING AUCTIONS FOR THEMSELVES ONLY\n        // require(\n        //     suppliers[tag].wallet == msg.sender,\n        //     \"Start auction only for yourself!\"\n        // );\n\n        suppliers[tag].currentState = AuctionState.RUNNING;\n        suppliers[tag].bidsPlaced = 0;\n        suppliers[tag].bidsRevealed = 0;\n        emit StartSupplierAuction(tag, block.timestamp);\n        return block.timestamp;\n    }\n\n    // @notice Supplier end their auction here\n    // @param tag Tag ID of the supplier\n    function supplierEndAuction(uint256 tag) public returns (uint256) {\n        // function for suppilier to end their auction\n        require(tag <= num_supplier, \"User doesn't exist\");\n        require(\n            suppliers[tag].currentState == AuctionState.RUNNING,\n            \"Auction ended already\"\n        );\n\n        // TODO: UNCOMMENT THE FOLLOWING TO ENSURE PEOPLE ARE ENDING AUCTIONS FOR THEMSELVES ONLY\n        // require(\n        //     suppliers[tag].wallet == msg.sender,\n        //     \"End auction only for yourself!\"\n        // );\n\n        suppliers[tag].currentState = AuctionState.REVEALING;\n        suppliers[tag].bidsRevealed = 0;\n        emit EndSupplierAuction(tag, block.timestamp);\n        return block.timestamp;\n    }\n\n    // @notice Supplier end their reveal phase and allocate resources\n    // @param tag Tag ID of the supplier\n    function supplierEndReveal(uint256 tag)\n        public\n        returns (\n            // afterOnly(supplierEndAuction(tag))\n            uint256\n        )\n    {\n        require(tag <= num_supplier, \"Supplier doesn't exist\");\n        require(\n            suppliers[tag].currentState == AuctionState.REVEALING,\n            \"Reveal phase not running\"\n        );\n\n        // TODO: UNCOMMENT THE FOLLOWING TO ENSURE PEOPLE ARE ALLOCATING FOR THEMSELVES ONLY\n        // require(\n        //     (suppliers[tag].wallet == msg.sender || owner == msg.sender),\n        //     \"Operation now allowed\"\n        // );\n\n        suppliers[tag].currentState = AuctionState.FINISHED;\n\n        // do allocation logic and emit\n\n        // bubble sort according to bid value\n        for (uint256 i = 0; i < bidsTillNow[suppliers[tag].wallet].length; i++)\n            for (uint256 j = 0; j < i; j++)\n                if (\n                    bidsTillNow[suppliers[tag].wallet][i].valuePrice <\n                    bidsTillNow[suppliers[tag].wallet][j].valuePrice\n                ) {\n                    Bid memory x = bidsTillNow[suppliers[tag].wallet][i];\n                    bidsTillNow[suppliers[tag].wallet][i] = bidsTillNow[\n                        suppliers[tag].wallet\n                    ][j];\n                    bidsTillNow[suppliers[tag].wallet][j] = x;\n                }\n        // allocate according to limiting resource first\n        uint256[100] memory allocatingPrices;\n        uint256[100] memory allocatingQuantities;\n        uint256[100] memory moneySentWithBid;\n\n        for (\n            uint256 i = 0;\n            i < bidsTillNow[suppliers[tag].wallet].length;\n            i++\n        ) {\n            Bid memory bid = bidsTillNow[suppliers[tag].wallet][i];\n            if (bid.correctReveal == false) continue;\n\n            moneySentWithBid[bid.buyerID] = bid.moneySent;\n\n            uint256 allocatingHere = minimum(\n                suppliers[tag].quantityAvailable,\n                bid.limitingResourceQuantity\n            );\n            allocatingHere = minimum(allocatingHere, bid.valueQuantity);\n\n            allocatingPrices[bid.buyerID] = bid.valuePrice;\n            allocatingQuantities[bid.buyerID] = allocatingHere;\n            suppliers[tag].quantityAvailable -= allocatingHere;\n            bidsTillNow[suppliers[tag].wallet][i]\n                .valueQuantity -= allocatingHere;\n        }\n\n        // allocate remaining for maximum profit\n        for (\n            uint256 i = 0;\n            i < bidsTillNow[suppliers[tag].wallet].length;\n            i++\n        ) {\n            Bid memory bid = bidsTillNow[suppliers[tag].wallet][i];\n            if (bid.correctReveal == false) continue;\n\n            uint256 allocatingHere = minimum(\n                suppliers[tag].quantityAvailable,\n                bid.valueQuantity\n            );\n\n            allocatingQuantities[bid.buyerID] += allocatingHere;\n            suppliers[tag].quantityAvailable -= allocatingHere;\n            bidsTillNow[suppliers[tag].wallet][i]\n                .valueQuantity -= allocatingHere;\n        }\n\n        // emit all allocations\n        for (uint256 i = 1; i <= num_manufacturer; i++)\n            if (allocatingQuantities[i] > 0) {\n                emit AllocateFromSupplier(\n                    tag,\n                    i,\n                    allocatingQuantities[i],\n                    allocatingPrices[i]\n                );\n                transferMoney(\n                    manufacturers[i].wallet,\n                    (moneySentWithBid[i] -\n                        allocatingPrices[i] *\n                        allocatingQuantities[i])\n                );\n                transferMoney(\n                    suppliers[tag].wallet,\n                    (allocatingPrices[i] * allocatingQuantities[i])\n                );\n                //update all the manufacturers quanitites to make cars\n                if (suppliers[tag].partType == 1)\n                    updateManufacturerQuantities(\n                        i,\n                        allocatingQuantities[i],\n                        0,\n                        tag,\n                        0\n                    );\n                else if (suppliers[tag].partType == 2)\n                    updateManufacturerQuantities(\n                        i,\n                        0,\n                        allocatingQuantities[i],\n                        0,\n                        tag\n                    );\n                else revert();\n            }\n        while (bidsTillNow[suppliers[tag].wallet].length > 0)\n            bidsTillNow[suppliers[tag].wallet].pop();\n        return block.timestamp;\n    }\n\n    // @notice Manufacturer place their bids\n    // @param manufacturerID Tag ID of the manufacturer\n    // @param supplierID Tag ID of the supplier\n    // @param blindPrice Bidding price blinded using encryption\n    // @param blindQuantity Bidding quantity blinded using encryption\n    // @param limit Limiting resource of the manufacturer\n    function manufacturerPlacesBid(\n        uint256 manufacturerID,\n        uint256 supplierID,\n        bytes32 blindPrice,\n        bytes32 blindQuantity,\n        uint256 limit\n    ) public payable {\n        require(\n            num_manufacturer >= manufacturerID,\n            \"Manufacturer doesn't exist\"\n        );\n        require(num_supplier >= supplierID, \"Supplier doesn't exist\");\n        require(\n            suppliers[supplierID].currentState == AuctionState.RUNNING,\n            \"Supplier isn't running an auction right now\"\n        );\n        require(\n            supplierID == manufacturerID || supplierID == 3,\n            \"Supplier doesnt sell you\"\n        );\n\n        // TODO: UNCOMMENT THE FOLLOWING TO ENSURE PEOPLE ARE ONLY PLACING BIDS FOR THEMSELVES\n        // require(\n        //     manufacturers[manufacturerID].wallet == msg.sender,\n        //     \"You can only bid for yourself!\"\n        // );\n\n        Bid memory newbid;\n        newbid.bidderAddress = payable(msg.sender);\n        newbid.moneySent = msg.value;\n        newbid.buyerID = manufacturerID;\n        newbid.sellerID = supplierID;\n        newbid.blindBidPrice = blindPrice;\n        newbid.blindBidQuantity = blindQuantity;\n        newbid.limitingResourceQuantity = limit;\n        newbid.valuePrice = 0;\n        newbid.valueQuantity = 0;\n        newbid.correctReveal = false;\n\n        address supplieraddr = suppliers[supplierID].wallet;\n        bidsTillNow[supplieraddr].push(newbid);\n\n        suppliers[supplierID].bidsPlaced += 1;\n\n        emit ManufacturerBids(\n            supplierID,\n            manufacturerID,\n            blindPrice,\n            blindQuantity\n        );\n    }\n\n    // @notice Manufacturer reveal their bids\n    // @param manufacturerID Tag ID of the manufacturer\n    // @param supplierID Tag ID of the supplier\n    // @param price Bidding price\n    // @param quantity Bidding quantity\n    function manufactuerRevealBid(\n        uint256 manufacturerID,\n        uint256 supplierID,\n        uint256 price,\n        uint256 quantity\n    ) public returns (bool) {\n        require(manufacturerID <= num_manufacturer, \"Invalid manufacturer\");\n        require(suppliers[supplierID].currentState == AuctionState.REVEALING);\n        // TODO: UNCOMMENT THE FOLLOWING TO ENSURE PEOPLE ARE ONLY REVEALING BIDS FOR THEMSELVES\n        // require(\n        //     manufacturers[manufacturerID].wallet == msg.sender,\n        //     \"Reveal only for yourself!\"\n        // );\n\n        for (\n            uint256 i = 0;\n            i < bidsTillNow[suppliers[supplierID].wallet].length;\n            i++\n        )\n            if (\n                bidsTillNow[suppliers[supplierID].wallet][i].buyerID ==\n                manufacturerID\n            ) {\n                require(\n                    keccak256(abi.encodePacked(price)) ==\n                        bidsTillNow[suppliers[supplierID].wallet][i]\n                            .blindBidPrice,\n                    \"Incorrect price -- keeping your money\"\n                );\n                require(\n                    keccak256(abi.encodePacked(quantity)) ==\n                        bidsTillNow[suppliers[supplierID].wallet][i]\n                            .blindBidQuantity,\n                    \"Incorrect quantity -- keeping your money\"\n                );\n\n                uint256 effectivePrice = price * quantity;\n                require(\n                    effectivePrice <=\n                        bidsTillNow[suppliers[supplierID].wallet][i].moneySent,\n                    \"Insufficient funds sent -- keeping your money\"\n                );\n\n                bidsTillNow[suppliers[supplierID].wallet][i]\n                    .correctReveal = true;\n\n                bidsTillNow[suppliers[supplierID].wallet][i].valuePrice = price;\n                bidsTillNow[suppliers[supplierID].wallet][i]\n                    .valueQuantity = quantity;\n                emit ManufacturerReveal(\n                    supplierID,\n                    manufacturerID,\n                    price,\n                    quantity\n                );\n\n                suppliers[supplierID].bidsRevealed += 1;\n                return true;\n            }\n        return false;\n    }\n\n    // @notice Updates quantities for manufacturers including cars\n    // @param manufacturerID Tag ID of the manufacturer\n    // @param quantityA Quantity of product A\n    // @param quantityB Quantitu of product B\n    // @param supplierA Supplier of product A\n    // @param supplierB Supplier of product B\n    function updateManufacturerQuantities(\n        uint256 manufacturerID,\n        uint256 quantityA,\n        uint256 quantityB,\n        uint256 supplierA,\n        uint256 supplierB\n    ) private {\n        manufacturers[manufacturerID].quantityA += quantityA;\n        manufacturers[manufacturerID].quantityB += quantityB;\n        uint256 max_cars = minimum(\n            manufacturers[manufacturerID].quantityA,\n            manufacturers[manufacturerID].quantityB\n        );\n        manufacturers[manufacturerID].quantityA -= max_cars;\n        manufacturers[manufacturerID].quantityB -= max_cars;\n        manufacturers[manufacturerID].cars += max_cars;\n\n        Product memory newcar;\n        num_products++;\n        newcar.tag = num_products;\n        newcar.manufacturerID = manufacturerID;\n        newcar.sellerA = manufacturerID;\n        newcar.sellerB = 3;\n        productsTillNow[manufacturers[manufacturerID].wallet].push(newcar);\n    }\n\n    function supplierAddQuantity(uint256 suppliedID, uint256 quantityToAdd)\n        public\n    {\n        require(suppliers[suppliedID].wallet == msg.sender);\n        require(num_supplier >= suppliedID);\n        // increase the supplier quantity\n        suppliers[suppliedID].quantityAvailable += quantityToAdd;\n    }\n\n    function set_cars_price(uint256 manufacturerID, uint256 price) public {\n        require(\n            msg.sender == manufacturers[manufacturerID].wallet ||\n                msg.sender == owner,\n            \"Cannot be set by you\"\n        );\n        manufacturers[manufacturerID].carsprice = price;\n    }\n\n    modifier beforeOnly(uint256 _time) {\n        require(block.timestamp < _time);\n        _;\n    }\n    modifier afterOnly(uint256 _time) {\n        require(block.timestamp > _time);\n        _;\n    }\n}\n",
  "sourcePath": "/home/prince/Course_M22/BLOCKCHAIN/Supply-Chain-Smartcontract/contracts/MarketPlace_Bidding.sol",
  "compiler": {
    "name": "solc",
    "version": "0.8.16+commit.07a7930e.Emscripten.clang"
  },
  "schemaVersion": "3.4.8",
  "updatedAt": "2022-09-16T14:59:37.913Z",
  "devdoc": {
    "kind": "dev",
    "methods": {},
    "version": 1
  },
  "userdoc": {
    "kind": "user",
    "methods": {},
    "version": 1
  }
}