{
  "contractName": "Marketplace",
  "abi": [
    {
      "inputs": [],
      "stateMutability": "nonpayable",
      "type": "constructor"
    },
    {
      "anonymous": false,
      "inputs": [
        {
          "indexed": false,
          "internalType": "uint256",
          "name": "manufacturerID",
          "type": "uint256"
        },
        {
          "indexed": false,
          "internalType": "uint256",
          "name": "customerID",
          "type": "uint256"
        },
        {
          "indexed": false,
          "internalType": "uint256",
          "name": "quantity",
          "type": "uint256"
        },
        {
          "indexed": false,
          "internalType": "uint256",
          "name": "price",
          "type": "uint256"
        },
        {
          "indexed": false,
          "internalType": "uint256[100]",
          "name": "carTag",
          "type": "uint256[100]"
        }
      ],
      "name": "AllocateFromManufacturer",
      "type": "event"
    },
    {
      "anonymous": false,
      "inputs": [
        {
          "indexed": false,
          "internalType": "uint256",
          "name": "supplierID",
          "type": "uint256"
        },
        {
          "indexed": false,
          "internalType": "uint256",
          "name": "manufacturerID",
          "type": "uint256"
        },
        {
          "indexed": false,
          "internalType": "uint256",
          "name": "quantity",
          "type": "uint256"
        },
        {
          "indexed": false,
          "internalType": "uint256",
          "name": "price",
          "type": "uint256"
        }
      ],
      "name": "AllocateFromSupplier",
      "type": "event"
    },
    {
      "anonymous": false,
      "inputs": [
        {
          "indexed": false,
          "internalType": "uint256",
          "name": "manufacturerID",
          "type": "uint256"
        },
        {
          "indexed": false,
          "internalType": "uint256",
          "name": "customerID",
          "type": "uint256"
        },
        {
          "indexed": false,
          "internalType": "bytes32",
          "name": "blindBid",
          "type": "bytes32"
        }
      ],
      "name": "CustomerBid",
      "type": "event"
    },
    {
      "anonymous": false,
      "inputs": [
        {
          "indexed": false,
          "internalType": "uint256",
          "name": "CustomerID",
          "type": "uint256"
        },
        {
          "indexed": false,
          "internalType": "uint256",
          "name": "ManufacturerID",
          "type": "uint256"
        },
        {
          "indexed": false,
          "internalType": "uint256",
          "name": "Quantity",
          "type": "uint256"
        },
        {
          "indexed": false,
          "internalType": "uint256",
          "name": "Price",
          "type": "uint256"
        }
      ],
      "name": "CustomerRequest",
      "type": "event"
    },
    {
      "anonymous": false,
      "inputs": [
        {
          "indexed": false,
          "internalType": "uint256",
          "name": "manufacturerID",
          "type": "uint256"
        },
        {
          "indexed": false,
          "internalType": "uint256",
          "name": "customerID",
          "type": "uint256"
        },
        {
          "indexed": false,
          "internalType": "uint256",
          "name": "price",
          "type": "uint256"
        },
        {
          "indexed": false,
          "internalType": "uint256",
          "name": "quantity",
          "type": "uint256"
        }
      ],
      "name": "CustomerReveal",
      "type": "event"
    },
    {
      "anonymous": false,
      "inputs": [
        {
          "indexed": false,
          "internalType": "uint256",
          "name": "i",
          "type": "uint256"
        },
        {
          "indexed": false,
          "internalType": "uint256",
          "name": "quantity",
          "type": "uint256"
        }
      ],
      "name": "DummyEvent",
      "type": "event"
    },
    {
      "anonymous": false,
      "inputs": [
        {
          "indexed": false,
          "internalType": "uint256",
          "name": "manufacturerID",
          "type": "uint256"
        },
        {
          "indexed": false,
          "internalType": "uint256",
          "name": "endTime",
          "type": "uint256"
        }
      ],
      "name": "EndManufacturerAuction",
      "type": "event"
    },
    {
      "anonymous": false,
      "inputs": [
        {
          "indexed": false,
          "internalType": "uint256",
          "name": "supplierID",
          "type": "uint256"
        },
        {
          "indexed": false,
          "internalType": "uint256",
          "name": "endTime",
          "type": "uint256"
        }
      ],
      "name": "EndSupplierAuction",
      "type": "event"
    },
    {
      "anonymous": false,
      "inputs": [
        {
          "indexed": false,
          "internalType": "uint256",
          "name": "supplierID",
          "type": "uint256"
        },
        {
          "indexed": false,
          "internalType": "uint256",
          "name": "manufacturerID",
          "type": "uint256"
        },
        {
          "indexed": false,
          "internalType": "bytes32",
          "name": "blindBidPrice",
          "type": "bytes32"
        },
        {
          "indexed": false,
          "internalType": "bytes32",
          "name": "blindBidQuantity",
          "type": "bytes32"
        },
        {
          "indexed": false,
          "internalType": "bytes32",
          "name": "blindKey",
          "type": "bytes32"
        }
      ],
      "name": "ManufacturerBids",
      "type": "event"
    },
    {
      "anonymous": false,
      "inputs": [
        {
          "indexed": false,
          "internalType": "uint256",
          "name": "supplierID",
          "type": "uint256"
        },
        {
          "indexed": false,
          "internalType": "uint256",
          "name": "manufacturerID",
          "type": "uint256"
        },
        {
          "indexed": false,
          "internalType": "uint256",
          "name": "price",
          "type": "uint256"
        },
        {
          "indexed": false,
          "internalType": "uint256",
          "name": "quantity",
          "type": "uint256"
        },
        {
          "indexed": false,
          "internalType": "uint256",
          "name": "key",
          "type": "uint256"
        }
      ],
      "name": "ManufacturerReveal",
      "type": "event"
    },
    {
      "anonymous": false,
      "inputs": [
        {
          "indexed": false,
          "internalType": "uint256",
          "name": "manufacturerID",
          "type": "uint256"
        },
        {
          "indexed": false,
          "internalType": "uint256",
          "name": "startTime",
          "type": "uint256"
        }
      ],
      "name": "StartManufacturerAuction",
      "type": "event"
    },
    {
      "anonymous": false,
      "inputs": [
        {
          "indexed": false,
          "internalType": "uint256",
          "name": "supplierID",
          "type": "uint256"
        },
        {
          "indexed": false,
          "internalType": "uint256",
          "name": "startTime",
          "type": "uint256"
        }
      ],
      "name": "StartSupplierAuction",
      "type": "event"
    },
    {
      "inputs": [
        {
          "internalType": "uint256",
          "name": "",
          "type": "uint256"
        }
      ],
      "name": "customers",
      "outputs": [
        {
          "internalType": "uint256",
          "name": "_tag",
          "type": "uint256"
        },
        {
          "internalType": "address",
          "name": "wallet",
          "type": "address"
        }
      ],
      "stateMutability": "view",
      "type": "function",
      "constant": true
    },
    {
      "inputs": [
        {
          "internalType": "uint256",
          "name": "",
          "type": "uint256"
        }
      ],
      "name": "manufacturers",
      "outputs": [
        {
          "internalType": "uint256",
          "name": "_tag",
          "type": "uint256"
        },
        {
          "internalType": "uint256",
          "name": "quantityA",
          "type": "uint256"
        },
        {
          "internalType": "uint256",
          "name": "quantityB",
          "type": "uint256"
        },
        {
          "internalType": "uint256",
          "name": "cars",
          "type": "uint256"
        },
        {
          "internalType": "uint256",
          "name": "carsprice",
          "type": "uint256"
        },
        {
          "internalType": "enum Marketplace.AuctionState",
          "name": "currentState",
          "type": "uint8"
        },
        {
          "internalType": "address",
          "name": "wallet",
          "type": "address"
        },
        {
          "internalType": "uint256",
          "name": "maxBidders",
          "type": "uint256"
        },
        {
          "internalType": "uint256",
          "name": "QA_sellerID",
          "type": "uint256"
        },
        {
          "internalType": "uint256",
          "name": "QB_sellerID",
          "type": "uint256"
        }
      ],
      "stateMutability": "view",
      "type": "function",
      "constant": true
    },
    {
      "inputs": [],
      "name": "num_customer",
      "outputs": [
        {
          "internalType": "uint256",
          "name": "",
          "type": "uint256"
        }
      ],
      "stateMutability": "view",
      "type": "function",
      "constant": true
    },
    {
      "inputs": [],
      "name": "num_manufacturer",
      "outputs": [
        {
          "internalType": "uint256",
          "name": "",
          "type": "uint256"
        }
      ],
      "stateMutability": "view",
      "type": "function",
      "constant": true
    },
    {
      "inputs": [],
      "name": "num_products",
      "outputs": [
        {
          "internalType": "uint256",
          "name": "",
          "type": "uint256"
        }
      ],
      "stateMutability": "view",
      "type": "function",
      "constant": true
    },
    {
      "inputs": [],
      "name": "num_supplier",
      "outputs": [
        {
          "internalType": "uint256",
          "name": "",
          "type": "uint256"
        }
      ],
      "stateMutability": "view",
      "type": "function",
      "constant": true
    },
    {
      "inputs": [],
      "name": "owner",
      "outputs": [
        {
          "internalType": "address payable",
          "name": "",
          "type": "address"
        }
      ],
      "stateMutability": "view",
      "type": "function",
      "constant": true
    },
    {
      "inputs": [
        {
          "internalType": "uint256",
          "name": "",
          "type": "uint256"
        }
      ],
      "name": "suppliers",
      "outputs": [
        {
          "internalType": "uint256",
          "name": "tag",
          "type": "uint256"
        },
        {
          "internalType": "int256",
          "name": "partType",
          "type": "int256"
        },
        {
          "internalType": "uint256",
          "name": "quantityAvailable",
          "type": "uint256"
        },
        {
          "internalType": "enum Marketplace.AuctionState",
          "name": "currentState",
          "type": "uint8"
        },
        {
          "internalType": "address",
          "name": "wallet",
          "type": "address"
        },
        {
          "internalType": "uint256",
          "name": "maxBidders",
          "type": "uint256"
        },
        {
          "internalType": "uint256",
          "name": "bidsPlaced",
          "type": "uint256"
        },
        {
          "internalType": "uint256",
          "name": "bidsRevealed",
          "type": "uint256"
        }
      ],
      "stateMutability": "view",
      "type": "function",
      "constant": true
    },
    {
      "inputs": [
        {
          "internalType": "uint256",
          "name": "a",
          "type": "uint256"
        },
        {
          "internalType": "uint256",
          "name": "b",
          "type": "uint256"
        }
      ],
      "name": "minimum",
      "outputs": [
        {
          "internalType": "uint256",
          "name": "",
          "type": "uint256"
        }
      ],
      "stateMutability": "pure",
      "type": "function",
      "constant": true
    },
    {
      "inputs": [
        {
          "internalType": "uint256",
          "name": "tag",
          "type": "uint256"
        }
      ],
      "name": "supplierStartAuction",
      "outputs": [
        {
          "internalType": "uint256",
          "name": "",
          "type": "uint256"
        }
      ],
      "stateMutability": "nonpayable",
      "type": "function"
    },
    {
      "inputs": [
        {
          "internalType": "uint256",
          "name": "tag",
          "type": "uint256"
        }
      ],
      "name": "supplierEndAuction",
      "outputs": [
        {
          "internalType": "uint256",
          "name": "",
          "type": "uint256"
        }
      ],
      "stateMutability": "nonpayable",
      "type": "function"
    },
    {
      "inputs": [
        {
          "internalType": "address",
          "name": "senderaddr",
          "type": "address"
        },
        {
          "internalType": "uint256",
          "name": "effectivePrice",
          "type": "uint256"
        }
      ],
      "name": "transferMoney",
      "outputs": [],
      "stateMutability": "payable",
      "type": "function",
      "payable": true
    },
    {
      "inputs": [
        {
          "internalType": "uint256",
          "name": "tag",
          "type": "uint256"
        }
      ],
      "name": "supplierEndReveal",
      "outputs": [
        {
          "internalType": "uint256",
          "name": "",
          "type": "uint256"
        }
      ],
      "stateMutability": "nonpayable",
      "type": "function"
    },
    {
      "inputs": [
        {
          "internalType": "uint256",
          "name": "manufacturerID",
          "type": "uint256"
        },
        {
          "internalType": "uint256",
          "name": "supplierID",
          "type": "uint256"
        },
        {
          "internalType": "bytes32",
          "name": "blindPrice",
          "type": "bytes32"
        },
        {
          "internalType": "bytes32",
          "name": "blindQuantity",
          "type": "bytes32"
        },
        {
          "internalType": "bytes32",
          "name": "blindKey",
          "type": "bytes32"
        },
        {
          "internalType": "uint256",
          "name": "limit",
          "type": "uint256"
        }
      ],
      "name": "manufacturerPlacesBid",
      "outputs": [],
      "stateMutability": "payable",
      "type": "function",
      "payable": true
    },
    {
      "inputs": [
        {
          "internalType": "uint256",
          "name": "customerID",
          "type": "uint256"
        },
        {
          "internalType": "uint256",
          "name": "manufacturerID",
          "type": "uint256"
        },
        {
          "internalType": "uint256",
          "name": "quantity",
          "type": "uint256"
        }
      ],
      "name": "customerPurchase",
      "outputs": [],
      "stateMutability": "payable",
      "type": "function",
      "payable": true
    },
    {
      "inputs": [
        {
          "internalType": "uint256",
          "name": "manufacturerID",
          "type": "uint256"
        },
        {
          "internalType": "uint256",
          "name": "supplierID",
          "type": "uint256"
        },
        {
          "internalType": "uint256",
          "name": "price",
          "type": "uint256"
        },
        {
          "internalType": "uint256",
          "name": "quantity",
          "type": "uint256"
        },
        {
          "internalType": "uint256",
          "name": "key",
          "type": "uint256"
        }
      ],
      "name": "manufactuerRevealBid",
      "outputs": [
        {
          "internalType": "bool",
          "name": "",
          "type": "bool"
        }
      ],
      "stateMutability": "nonpayable",
      "type": "function"
    },
    {
      "inputs": [
        {
          "internalType": "uint256",
          "name": "manufacturerID",
          "type": "uint256"
        }
      ],
      "name": "manufacturerSupplyCars",
      "outputs": [],
      "stateMutability": "nonpayable",
      "type": "function"
    },
    {
      "inputs": [
        {
          "internalType": "int256",
          "name": "partType",
          "type": "int256"
        },
        {
          "internalType": "uint256",
          "name": "quantityAvailable",
          "type": "uint256"
        },
        {
          "internalType": "address payable",
          "name": "addr",
          "type": "address"
        },
        {
          "internalType": "uint256",
          "name": "auctionBidders",
          "type": "uint256"
        }
      ],
      "name": "addSupplier",
      "outputs": [],
      "stateMutability": "nonpayable",
      "type": "function"
    },
    {
      "inputs": [
        {
          "internalType": "address payable",
          "name": "addr",
          "type": "address"
        },
        {
          "internalType": "uint256",
          "name": "auctionBidders",
          "type": "uint256"
        }
      ],
      "name": "addManufacturer",
      "outputs": [],
      "stateMutability": "nonpayable",
      "type": "function"
    },
    {
      "inputs": [
        {
          "internalType": "address payable",
          "name": "addr",
          "type": "address"
        }
      ],
      "name": "addCustomer",
      "outputs": [],
      "stateMutability": "nonpayable",
      "type": "function"
    },
    {
      "inputs": [
        {
          "internalType": "uint256",
          "name": "suppliedID",
          "type": "uint256"
        },
        {
          "internalType": "uint256",
          "name": "quantityToAdd",
          "type": "uint256"
        }
      ],
      "name": "supplierAddQuantity",
      "outputs": [],
      "stateMutability": "nonpayable",
      "type": "function"
    },
    {
      "inputs": [
        {
          "internalType": "uint256",
          "name": "manufacturerID",
          "type": "uint256"
        },
        {
          "internalType": "uint256",
          "name": "price",
          "type": "uint256"
        }
      ],
      "name": "set_cars_price",
      "outputs": [],
      "stateMutability": "nonpayable",
      "type": "function"
    },
    {
      "inputs": [
        {
          "internalType": "uint256",
          "name": "customerID",
          "type": "uint256"
        },
        {
          "internalType": "uint256",
          "name": "car_tag",
          "type": "uint256"
        }
      ],
      "name": "verifyproduct",
      "outputs": [
        {
          "internalType": "uint256",
          "name": "carID",
          "type": "uint256"
        },
        {
          "internalType": "uint256",
          "name": "manfID",
          "type": "uint256"
        },
        {
          "internalType": "uint256",
          "name": "sellerIDA",
          "type": "uint256"
        },
        {
          "internalType": "uint256",
          "name": "sellerIDB",
          "type": "uint256"
        }
      ],
      "stateMutability": "view",
      "type": "function",
      "constant": true
    },
    {
      "inputs": [
        {
          "internalType": "uint256",
          "name": "manfID",
          "type": "uint256"
        }
      ],
      "name": "get_cars_price_quantity",
      "outputs": [
        {
          "internalType": "uint256",
          "name": "price",
          "type": "uint256"
        },
        {
          "internalType": "uint256",
          "name": "quantity",
          "type": "uint256"
        }
      ],
      "stateMutability": "view",
      "type": "function",
      "constant": true
    },
    {
      "inputs": [
        {
          "internalType": "uint256",
          "name": "manfID",
          "type": "uint256"
        }
      ],
      "name": "get_manufacturer_data",
      "outputs": [
        {
          "internalType": "uint256",
          "name": "tag",
          "type": "uint256"
        },
        {
          "internalType": "uint256",
          "name": "quantA",
          "type": "uint256"
        },
        {
          "internalType": "uint256",
          "name": "quantB",
          "type": "uint256"
        },
        {
          "internalType": "uint256",
          "name": "cars",
          "type": "uint256"
        }
      ],
      "stateMutability": "view",
      "type": "function",
      "constant": true
    },
    {
      "inputs": [
        {
          "internalType": "uint256",
          "name": "customerID",
          "type": "uint256"
        }
      ],
      "name": "get_car_data",
      "outputs": [
        {
          "internalType": "uint256[10]",
          "name": "cars",
          "type": "uint256[10]"
        }
      ],
      "stateMutability": "view",
      "type": "function",
      "constant": true
    },
    {
      "inputs": [],
      "name": "getsuppliers",
      "outputs": [
        {
          "internalType": "uint256",
          "name": "",
          "type": "uint256"
        }
      ],
      "stateMutability": "view",
      "type": "function",
      "constant": true
    },
    {
      "inputs": [],
      "name": "getmanufacturers",
      "outputs": [
        {
          "internalType": "uint256",
          "name": "",
          "type": "uint256"
        }
      ],
      "stateMutability": "view",
      "type": "function",
      "constant": true
    },
    {
      "inputs": [
        {
          "internalType": "uint256",
          "name": "supplierID",
          "type": "uint256"
        }
      ],
      "name": "getstatus",
      "outputs": [
        {
          "internalType": "enum Marketplace.AuctionState",
          "name": "",
          "type": "uint8"
        }
      ],
      "stateMutability": "view",
      "type": "function",
      "constant": true
    },
    {
      "inputs": [
        {
          "internalType": "uint256",
          "name": "supID",
          "type": "uint256"
        }
      ],
      "name": "getbidcount",
      "outputs": [
        {
          "internalType": "uint256",
          "name": "len",
          "type": "uint256"
        }
      ],
      "stateMutability": "view",
      "type": "function",
      "constant": true
    },
    {
      "inputs": [
        {
          "internalType": "uint256",
          "name": "manfID",
          "type": "uint256"
        },
        {
          "internalType": "uint256",
          "name": "quant",
          "type": "uint256"
        }
      ],
      "name": "set_cars",
      "outputs": [],
      "stateMutability": "nonpayable",
      "type": "function"
    }
  ],
  "bytecode": "0x608060405234801561001057600080fd5b50600a80546001600160a01b031916331790556000600181905580805560025561365a8061003f6000396000f3fe6080604052600436106101685760003560e01c80630cf3750d1461016d5780630dc98f501461018f57806317c9dea6146101c45780634075ccea146101f25780634cc9aff8146102075780635ad272771461021d57806362949a5d146102325780638da5cb5b1461024557806390175af11461027d5780639a7a9b131461030a5780639adc51f91461032a578063a436792b14610375578063a83a6c4414610395578063aa8613c4146103a8578063ac4ca43c146103c8578063ad973d74146103f8578063b1877fb914610418578063c04052171461044d578063c0abda2a14610463578063c2ff9e44146104bd578063c5828c7d146104dd578063cea231211461050d578063d6470b491461058b578063dd2d2a12146105ab578063e2416a2c146105cb578063eb16d0e4146105eb578063edcac78b14610601578063f1e4e1bd14610617578063f895c52014610644578063fad23bdc14610664578063fee666ad146106a4575b600080fd5b34801561017957600080fd5b5061018d6101883660046131e1565b6106b7565b005b34801561019b57600080fd5b506101af6101aa366004613203565b61071b565b60405190151581526020015b60405180910390f35b3480156101d057600080fd5b506101e46101df36600461323e565b610d29565b6040519081526020016101bb565b3480156101fe57600080fd5b506000546101e4565b34801561021357600080fd5b506101e460015481565b34801561022957600080fd5b506001546101e4565b61018d610240366004613257565b610e29565b34801561025157600080fd5b50600a54610265906001600160a01b031681565b6040516001600160a01b0390911681526020016101bb565b34801561028957600080fd5b506102f461029836600461323e565b600560208190526000918252604090912080546001820154600283015460038401546004850154958501546006860154600787015460089097015495979496939592949360ff8316936101009093046001600160a01b0316928a565b6040516101bb9a999897969594939291906132bb565b34801561031657600080fd5b5061018d610325366004613334565b611029565b34801561033657600080fd5b506101e461034536600461323e565b60009081526004602090815260408083206003015461010090046001600160a01b03168352600790915290205490565b34801561038157600080fd5b5061018d610390366004613373565b611129565b61018d6103a336600461339f565b611269565b3480156103b457600080fd5b506101e46103c336600461323e565b61163d565b3480156103d457600080fd5b506103e86103e336600461323e565b611728565b6040516101bb94939291906133e2565b34801561040457600080fd5b5061018d6104133660046133fd565b61182d565b34801561042457600080fd5b5061043861043336600461323e565b611890565b604080519283526020830191909152016101bb565b34801561045957600080fd5b506101e460035481565b34801561046f57600080fd5b506104a061047e36600461323e565b600660205260009081526040902080546001909101546001600160a01b031682565b604080519283526001600160a01b039091166020830152016101bb565b3480156104c957600080fd5b5061018d6104d836600461323e565b611904565b3480156104e957600080fd5b5061018d6104f83660046131e1565b60009182526005602052604090912060030155565b34801561051957600080fd5b5061057761052836600461323e565b6004602081905260009182526040909120805460018201546002830154600384015494840154600585015460069095015493959294919360ff84169361010090046001600160a01b0316929088565b6040516101bb989796959493929190613421565b34801561059757600080fd5b5061018d6105a63660046131e1565b61208c565b3480156105b757600080fd5b506101e46105c63660046131e1565b61211c565b3480156105d757600080fd5b506101e46105e636600461323e565b612137565b3480156105f757600080fd5b506101e460025481565b34801561060d57600080fd5b506101e460005481565b34801561062357600080fd5b5061063761063236600461323e565b612d7d565b6040516101bb9190613473565b34801561065057600080fd5b506103e861065f3660046131e1565b612e17565b34801561067057600080fd5b5061069761067f36600461323e565b60009081526004602052604090206003015460ff1690565b6040516101bb91906134a5565b61018d6106b2366004613373565b612f92565b60008281526004602052604090206003015461010090046001600160a01b031633146106e257600080fd5b8160005410156106f157600080fd5b600082815260046020526040812060020180548392906107129084906134c9565b90915550505050565b600060015486111561076b5760405162461bcd60e51b815260206004820152601460248201527324b73b30b634b21036b0b73ab330b1ba3ab932b960611b60448201526064015b60405180910390fd5b6001600086815260046020526040902060039081015460ff169081111561079457610794613283565b1461079e57600080fd5b60005b60008681526004602090815260408083206003015461010090046001600160a01b031683526007909152902054811015610d1a5760008681526004602090815260408083206003015461010090046001600160a01b0316835260079091529020805488919083908110610816576108166134dc565b90600052602060002090600b02016007015403610d085760008681526004602090815260408083206003015461010090046001600160a01b031683526007909152902080548290811061086b5761086b6134dc565b90600052602060002090600b0201600501548360405160200161089091815260200190565b60405160208183030381529060405280519060200120146108ff5760405162461bcd60e51b815260206004820152602360248201527f496e636f7272656374206b6579202d2d206b656570696e6720796f7572206d6f6044820152626e657960e81b6064820152608401610762565b60008681526004602090815260408083206003015461010090046001600160a01b031683526007909152902080548290811061093d5761093d6134dc565b90600052602060002090600b020160030154838661095b91906134c9565b60405160200161096d91815260200190565b60405160208183030381529060405280519060200120146109de5760405162461bcd60e51b815260206004820152602560248201527f496e636f7272656374207072696365202d2d206b656570696e6720796f7572206044820152646d6f6e657960d81b6064820152608401610762565b60008681526004602090815260408083206003015461010090046001600160a01b0316835260079091529020805482908110610a1c57610a1c6134dc565b90600052602060002090600b0201600401548385610a3a91906134c9565b604051602001610a4c91815260200190565b6040516020818303038152906040528051906020012014610ac05760405162461bcd60e51b815260206004820152602860248201527f496e636f7272656374207175616e74697479202d2d206b656570696e6720796f6044820152677572206d6f6e657960c01b6064820152608401610762565b6000610acc85876134f2565b60008881526004602090815260408083206003015461010090046001600160a01b031683526007909152902080549192509083908110610b0e57610b0e6134dc565b90600052602060002090600b0201600901548110610b845760405162461bcd60e51b815260206004820152602d60248201527f496e73756666696369656e742066756e64732073656e74202d2d206b6565706960448201526c6e6720796f7572206d6f6e657960981b6064820152608401610762565b60008781526004602090815260408083206003015461010090046001600160a01b031683526007909152902080546001919084908110610bc657610bc66134dc565b60009182526020808320600b92909202909101600a01805460ff1916931515939093179092558881526004825260408082206003015461010090046001600160a01b03168252600790925220805487919084908110610c2757610c276134dc565b60009182526020808320600b90920290910192909255888152600482526040808220600301546001600160a01b03610100909104168252600790925220805486919084908110610c7957610c796134dc565b90600052602060002090600b0201600101819055507f1e03b01ba1997c24040f0a2e5145f9dc2be2d1821b811bd7def13c7f41cda8748789888888604051610cc5959493929190613511565b60405180910390a16000878152600460205260408120600601805460019290610cef9084906134c9565b9091555050506000869052505060046020526001610d20565b80610d1281613534565b9150506107a1565b50600090505b95945050505050565b60008054821115610d4c5760405162461bcd60e51b81526004016107629061354d565b600082815260046020526040812060039081015460ff1690811115610d7357610d73613283565b03610dbe5760405162461bcd60e51b815260206004820152601b60248201527a41756374696f6e20696e2d70726f677265737320616c726561647960281b6044820152606401610762565b600082815260046020908152604080832060038101805460ff191690556005810184905560060192909255815184815242918101919091527f10449cff8425a2b933fdd57a667ad5bdad3da817ddd9179f125f5c7756582e1791015b60405180910390a15042919050565b6000838152600660205260409020600101546001600160a01b0316331480610e5b5750600a546001600160a01b031633145b610e975760405162461bcd60e51b815260206004820152600d60248201526c1058d8d95cdcc811195b9a5959609a1b6044820152606401610762565b610ed26040518060a0016040528060008152602001600081526020016000815260200160006001600160a01b03168152602001600081525090565b82815233606082015260408082018390526020808301869052346080840152600085815260059091529081206004015490610f0d84836134f2565b90508083608001511015610f565760405162461bcd60e51b815260206004820152601060248201526f09adedccaf240dcdee840cadcdeeaced60831b6044820152606401610762565b60008581526005602081815260408084208084015461010090046001600160a01b03908116808752600885528387208054600180820183559189528689208c51918902019081558b870151918101919091558a850151600282015560608b01516003820180546001600160a01b031916919094161790925560808a0151600492830155958b90529390925291015490517ffee408fb277c265efa7c7adea166e7ebe6ce1e4bf153cc84a610be9a46d4ba8291611018918a918a918a91906133e2565b60405180910390a150505050505050565b60008054908061103883613534565b909155505060408051610100810182526000805480835260208084018981528486018981526002606087018181526001600160a01b038b16608089015260a088018a905260c0880187905260e088018790529486526004909352959093208451815592516001808501919091559451908301555160038083018054949593949293909260ff19169184908111156110d1576110d1613283565b021790555060808201516003820180546001600160a01b0390921661010002610100600160a81b031990921691909117905560a0820151600482015560c0820151600582015560e09091015160069091015550505050565b6001805490600061113983613534565b91905055506040518061014001604052806001548152602001600081526020016000815260200160008152602001600081526020016002600381111561118157611181613283565b8152602001836001600160a01b03168152602001828152602001600081526020016000815250600560006001548152602001908152602001600020600082015181600001556020820151816001015560408201518160020155606082015181600301556080820151816004015560a08201518160050160006101000a81548160ff0219169083600381111561121857611218613283565b021790555060c0820151600582018054610100600160a81b0319166101006001600160a01b03909316830217905560e083015160068301558201516007820155610120909101516008909101555050565b8560015410156112b85760405162461bcd60e51b815260206004820152601a60248201527913585b9d599858dd1d5c995c88191bd95cdb89dd08195e1a5cdd60321b6044820152606401610762565b8460005410156112da5760405162461bcd60e51b815260040161076290613579565b600085815260046020526040812060039081015460ff169081111561130157611301613283565b146113625760405162461bcd60e51b815260206004820152602b60248201527f537570706c6965722069736e27742072756e6e696e6720616e2061756374696f60448201526a6e207269676874206e6f7760a81b6064820152608401610762565b858514806113705750846003145b6113b75760405162461bcd60e51b8152602060048201526018602482015277537570706c69657220646f65736e742073656c6c20796f7560401b6044820152606401610762565b6040805161016081018252600080825260208201819052918101829052606081018290526080810182905260a0810182905260c0810182905260e08101829052610100810182905261012081018290526101408101919091523381604001906001600160a01b031690816001600160a01b0316815250503481610120018181525050868160e001818152505085816101000181815250508481606001818152505083816080018181525050828160a0018181525050818160c00181815250506000816000018181525050600081602001818152505060008161014001901515908115158152505060006004600088815260200190815260200160002060030160019054906101000a90046001600160a01b0316905060076000826001600160a01b03166001600160a01b031681526020019081526020016000208290806001815401808255809150506001900390600052602060002090600b0201600090919091909150600082015181600001556020820151816001015560408201518160020160006101000a8154816001600160a01b0302191690836001600160a01b03160217905550606082015181600301556080820151816004015560a0820151816005015560c0820151816006015560e082015181600701556101008201518160080155610120820151816009015561014082015181600a0160006101000a81548160ff021916908315150217905550505060016004600089815260200190815260200160002060050160008282546115ee91906134c9565b90915550506040517f8a06846852690683a485d2a83db8d92c70d8aaaf4693c2c3b223705fb4c916279061162b9089908b908a908a908a90613511565b60405180910390a15050505050505050565b600080548211156116605760405162461bcd60e51b81526004016107629061354d565b600082815260046020526040812060039081015460ff169081111561168757611687613283565b146116cc5760405162461bcd60e51b815260206004820152601560248201527441756374696f6e20656e64656420616c726561647960581b6044820152606401610762565b600082815260046020908152604080832060038101805460ff1916600117905560060192909255815184815242918101919091527f0c368e4cdd0e23707857d20056076efe6f588f9ce71ab6ce676d331fdc035f5b9101610e1a565b6000806000806000600560008781526020019081526020016000206040518061014001604052908160008201548152602001600182015481526020016002820154815260200160038201548152602001600482015481526020016005820160009054906101000a900460ff1660038111156117a5576117a5613283565b60038111156117b6576117b6613283565b81526020016005820160019054906101000a90046001600160a01b03166001600160a01b03166001600160a01b031681526020016006820154815260200160078201548152602001600882015481525050905080600001518160200151826040015183606001519450945094509450509193509193565b6002805490600061183d83613534565b90915550506040805180820182526002548082526001600160a01b039384166020808401918252600092835260069052929020905181559051600190910180546001600160a01b03191691909216179055565b6000808260015410156118e55760405162461bcd60e51b815260206004820152601d60248201527f4d616e75666163747572657220494420646f65736e6f742065786973740000006044820152606401610762565b5050600090815260056020526040902060048101546003909101549091565b80600154101561191357600080fd5b6000818152600560208190526040909120015461010090046001600160a01b031633148061194b5750600a546001600160a01b031633145b61195457600080fd5b60005b60008281526005602081815260408084209092015461010090046001600160a01b0316835260089052902054811015611fd9576000828152600560208181526040808420600381015493015461010090046001600160a01b0316845260089091529091208054839081106119cd576119cd6134dc565b90600052602060002090600502016002015411611f86576000828152600560208181526040808420600481015493015461010090046001600160a01b0316845260089091528220805484908110611a2657611a266134dc565b906000526020600020906005020160020154611a4291906134f2565b60008481526005602081815260408084209092015461010090046001600160a01b031683526008905281208054929350909183919085908110611a8757611a876134dc565b906000526020600020906005020160040154611aa391906135a9565b60008581526005602081815260408084209092015461010090046001600160a01b0316835260089052902080549192509084908110611ae457611ae46134dc565b906000526020600020906005020160020154600560008681526020019081526020016000206003016000828254611b1b91906135a9565b909155505060008481526005602081815260408084209092015461010090046001600160a01b03168352600890528120805485908110611b5d57611b5d6134dc565b6000918252602080832060059283020160020154888452908290526040909220015490915061010090046001600160a01b0316611b986131a3565b6000805b84811015611dfa576001600160a01b03841660009081526009602052604090205415611dfa576001600160a01b038416600090815260096020526040812054611be7906001906135a9565b9050611c146040518060800160405280600081526020016000815260200160008152602001600081525090565b6001600160a01b0386166000908152600960205260409020805483908110611c3e57611c3e6134dc565b6000918252602080832060049092029091015483528281018d90526001600160a01b03881682526009905260409020805483908110611c7f57611c7f6134dc565b90600052602060002090600402016002015481604001818152505060096000876001600160a01b03166001600160a01b031681526020019081526020016000208281548110611cd057611cd06134dc565b600091825260208083206003600490930201919091015460608401526001600160a01b038816825260089052604081208054600b92919085908110611d1757611d176134dc565b60009182526020808320600160059093020182015484528381019490945260409283018220805480830182559083528483208651600490920201908155858501519181019190915584830151600282015560608501516003909101556001600160a01b038916815260099092529020805480611d9557611d956135bc565b600082815260208120600460001990930192830201818155600181018290556002810182905560030155905580518585611dce81613534565b965060648110611de057611de06134dc565b602002015250819050611df281613534565b915050611b9c565b5060008881526005602081905260409091200154611e269061010090046001600160a01b031687612f92565b60008881526005602081815260408084209092015461010090046001600160a01b031683526008905281208054611ea19260069290918b908110611e6c57611e6c6134dc565b60009182526020808320600160059093020182015484528301939093526040909101902001546001600160a01b031686612f92565b60008881526005602081815260408084209092015461010090046001600160a01b0316835260089052902080547f1aff87a36f8ab51e6d00c79e403e67535da25af06a6dc7b9cac3fc96a25cbfb3918a918a908110611f0257611f026134dc565b60009182526020808320600592830201600101548d845282825260408085209093015461010090046001600160a01b031684526008909152912080548b908110611f4e57611f4e6134dc565b9060005260206000209060050201600201548986604051611f739594939291906135d2565b60405180910390a1505050505050611fc7565b60405162461bcd60e51b81526020600482015260166024820152755175616e74697479206e6f7420417661696c61626c6560501b6044820152606401610762565b80611fd181613534565b915050611957565b505b60008181526005602081815260408084209092015461010090046001600160a01b0316835260089052902054156120895760008181526005602081815260408084209092015461010090046001600160a01b03168352600890529020805480612046576120466135bc565b60008281526020812060056000199093019283020181815560018101829055600281018290556003810180546001600160a01b0319169055600401559055611fdb565b50565b6000828152600560208190526040909120015461010090046001600160a01b03163314806120c45750600a546001600160a01b031633145b6121075760405162461bcd60e51b815260206004820152601460248201527343616e6e6f742062652073657420627920796f7560601b6044820152606401610762565b60009182526005602052604090912060040155565b60008183101561212c578261212e565b815b90505b92915050565b6000805482111561215a5760405162461bcd60e51b815260040161076290613579565b6001600083815260046020526040902060039081015460ff169081111561218357612183613283565b146121cb5760405162461bcd60e51b815260206004820152601860248201527752657665616c207068617365206e6f742072756e6e696e6760401b6044820152606401610762565b60008281526004602052604081206003908101805460ff191690911790555b60008381526004602090815260408083206003015461010090046001600160a01b03168352600790915290205481101561260557600061222b8260016134c9565b90505b60008481526004602090815260408083206003015461010090046001600160a01b0316835260079091529020548110156125f25760008481526004602090815260408083206003015461010090046001600160a01b03168352600790915290208054829081106122a0576122a06134dc565b60009182526020808320600b90920290910154868352600482526040808420600301546001600160a01b03610100909104168452600790925291208054849081106122ed576122ed6134dc565b90600052602060002090600b02016000015410156125e05760008481526004602090815260408083206003015461010090046001600160a01b0316835260079091528120805484908110612343576123436134dc565b600091825260208083206040805161016081018252600b9094029091018054845260018101548484015260028101546001600160a01b039081168584015260038083015460608701526004808401546080880152600584015460a0880152600684015460c088015260078085015460e08901526008850154610100808a019190915260098601546101208a0152600a9095015460ff1615156101408901528d8952908652848820909101549290920416855290915290912080549192509083908110612411576124116134dc565b60009182526020808320888452600482526040808520600301546001600160a01b03610100909104168552600790925292208054600b90920290920191908590811061245f5761245f6134dc565b600091825260208083208454600b909302019182556001808501549083015560028085015490830180546001600160a01b0319166001600160a01b0392831617905560038086015481850155600480870154818601556005808801549086015560068088015490860155600780880154818701556008808901549087015560098089015490870155600a9788015497909501805460ff909816151560ff19909816979097179096558a855294825260408085209095015461010090041683525220805482919084908110612535576125356134dc565b60009182526020918290208351600b929092020190815590820151600182015560408201516002820180546001600160a01b0319166001600160a01b03909216919091179055606082015160038201556080820151600482015560a0820151600582015560c0820151600682015560e082015160078201556101008201516008820155610120820151600982015561014090910151600a909101805460ff1916911515919091179055505b806125ea81613534565b91505061222e565b50806125fd81613534565b9150506121ea565b5061260e6131a3565b6126166131a3565b61261e6131a3565b60005b60008681526004602090815260408083206003015461010090046001600160a01b03168352600790915290205481101561287f5760008681526004602090815260408083206003015461010090046001600160a01b0316835260079091528120805483908110612693576126936134dc565b600091825260208083206040805161016081018252600b9094029091018054845260018101549284019290925260028201546001600160a01b0316908301526003810154606083015260048101546080830152600581015460a0830152600681015460c0830152600781015460e083015260088101546101008301526009810154610120830152600a015460ff1615156101408201819052909250900361273a575061286d565b806101200151838260e0015160648110612756576127566134dc565b6020020181815250506000612785600460008a8152602001908152602001600020600201548360c0015161211c565b905061279581836020015161211c565b90508160000151868360e00151606481106127b2576127b26134dc565b602002015260e082015181908690606481106127d0576127d06134dc565b60200201818152505080600460008a815260200190815260200160002060020160008282546127ff91906135a9565b909155505060008881526004602090815260408083206003015461010090046001600160a01b0316835260079091529020805482919085908110612845576128456134dc565b90600052602060002090600b0201600101600082825461286591906135a9565b909155505050505b8061287781613534565b915050612621565b5060005b60008681526004602090815260408083206003015461010090046001600160a01b031683526007909152902054811015612a8c5760008681526004602090815260408083206003015461010090046001600160a01b03168352600790915281208054839081106128f5576128f56134dc565b600091825260208083206040805161016081018252600b9094029091018054845260018101549284019290925260028201546001600160a01b0316908301526003810154606083015260048101546080830152600581015460a0830152600681015460c0830152600781015460e083015260088101546101008301526009810154610120830152600a015460ff1615156101408201819052909250900361299c5750612a7a565b6000878152600460209081526040822060020154908301516129be919061211c565b905080858360e00151606481106129d7576129d76134dc565b602002018181516129e891906134c9565b90525060008881526004602052604081206002018054839290612a0c9084906135a9565b909155505060008881526004602090815260408083206003015461010090046001600160a01b0316835260079091529020805482919085908110612a5257612a526134dc565b90600052602060002090600b02016001016000828254612a7291906135a9565b909155505050505b80612a8481613534565b915050612883565b5060015b6001548111612c8f576000838260648110612aad57612aad6134dc565b60200201511115612c7d577f389cc4d2b135e7b676a809ad7bacdde1b644b0bbe73afdd545a176ea73b955178682858460648110612aed57612aed6134dc565b6020020151878560648110612b0457612b046134dc565b6020020151604051612b1994939291906133e2565b60405180910390a160008181526005602081905260409091200154612b9f9061010090046001600160a01b0316848360648110612b5857612b586134dc565b6020020151868460648110612b6f57612b6f6134dc565b6020020151612b7e91906134f2565b848460648110612b9057612b906134dc565b60200201516106b291906135a9565b600086815260046020526040902060030154612bfb9061010090046001600160a01b0316848360648110612bd557612bd56134dc565b6020020151868460648110612bec57612bec6134dc565b60200201516106b291906134f2565b60008681526004602052604090206001908101549003612c3f57612c3a81848360648110612c2b57612c2b6134dc565b60200201516000896000612ffa565b612c7d565b60008681526004602052604090206001015460020361016857612c3a816000858460648110612c7057612c706134dc565b602002015160008a612ffa565b80612c8781613534565b915050612a90565b505b60008581526004602090815260408083206003015461010090046001600160a01b03168352600790915290205415612d735760008581526004602090815260408083206003015461010090046001600160a01b0316835260079091529020805480612cfe57612cfe6135bc565b600082815260208120600b60001990930192830201818155600181018290556002810180546001600160a01b03191690556003810182905560048101829055600581018290556006810182905560078101829055600881018290556009810191909155600a01805460ff191690559055612c91565b5042949350505050565b612d856131c2565b612d8d6131c2565b6000805b6000858152600b6020526040902054811015612e0e576000858152600b60205260409020805482908110612dc757612dc76134dc565b906000526020600020906004020160000154838380612de590613534565b9450600a8110612df757612df76134dc565b602002015280612e0681613534565b915050612d91565b50909392505050565b60008060008060005b6000878152600b6020526040902054811015612f31576000878152600b60205260409020805487919083908110612e5957612e596134dc565b90600052602060002090600402016000015403612f1f576000878152600b60205260409020805487919083908110612e9357612e936134dc565b906000526020600020906004020160010154600b60008a81526020019081526020016000208381548110612ec957612ec96134dc565b906000526020600020906004020160020154600b60008b81526020019081526020016000208481548110612eff57612eff6134dc565b906000526020600020906004020160030154945094509450945050612f89565b80612f2981613534565b915050612e20565b5060405162461bcd60e51b815260206004820152602660248201527f436172206e6f7420666f756e6420696e2074686579206275796572732070757260448201526563686173657360d01b6064820152608401610762565b92959194509250565b6040516001600160a01b0383169082156108fc029083906000818181858888f19350505050612ff65760405162461bcd60e51b815260206004820152601060248201526f5472616e73666572206661696c65642160801b6044820152606401610762565b5050565b6000858152600560205260408120600101805486929061301b9084906134c9565b9091555050600085815260056020526040812060020180548592906130419084906134c9565b909155505060008581526005602052604081206001810154600290910154613069919061211c565b90508060056000888152602001908152602001600020600101600082825461309191906135a9565b9091555050600086815260056020526040812060020180548392906130b79084906135a9565b9091555050600086815260056020526040812060030180548392906130dd9084906134c9565b9250508190555061310f6040518060800160405280600081526020016000815260200160008152602001600081525090565b6003805490600061311f83613534565b9091555050600380548252602080830189815260408085018b81526060860185815260009c8d526005808652838e20015461010090046001600160a01b03168d5260098552918c20805460018082018355918e5294909c20955160049094029095019283559051998201999099559151600283015596519601959095555050505050565b60405180610c8001604052806064906020820280368337509192915050565b604051806101400160405280600a906020820280368337509192915050565b600080604083850312156131f457600080fd5b50508035926020909101359150565b600080600080600060a0868803121561321b57600080fd5b505083359560208501359550604085013594606081013594506080013592509050565b60006020828403121561325057600080fd5b5035919050565b60008060006060848603121561326c57600080fd5b505081359360208301359350604090920135919050565b634e487b7160e01b600052602160045260246000fd5b600481106132b757634e487b7160e01b600052602160045260246000fd5b9052565b6000610140820190508b82528a60208301528960408301528860608301528760808301526132ec60a0830188613299565b6001600160a01b039590951660c082015260e0810193909352610100830191909152610120909101529695505050505050565b6001600160a01b038116811461208957600080fd5b6000806000806080858703121561334a57600080fd5b843593506020850135925060408501356133638161331f565b9396929550929360600135925050565b6000806040838503121561338657600080fd5b82356133918161331f565b946020939093013593505050565b60008060008060008060c087890312156133b857600080fd5b505084359660208601359650604086013595606081013595506080810135945060a0013592509050565b93845260208401929092526040830152606082015260800190565b60006020828403121561340f57600080fd5b813561341a8161331f565b9392505050565b888152602081018890526040810187905261010081016134446060830188613299565b6001600160a01b0395909516608082015260a081019390935260c083019190915260e090910152949350505050565b6101408101818360005b600a81101561349c57815183526020928301929091019060010161347d565b50505092915050565b602081016121318284613299565b634e487b7160e01b600052601160045260246000fd5b80820180821115612131576121316134b3565b634e487b7160e01b600052603260045260246000fd5b600081600019048311821515161561350c5761350c6134b3565b500290565b948552602085019390935260408401919091526060830152608082015260a00190565b600060018201613546576135466134b3565b5060010190565b602080825260129082015271155cd95c88191bd95cdb89dd08195e1a5cdd60721b604082015260600190565b60208082526016908201527514dd5c1c1b1a595c88191bd95cdb89dd08195e1a5cdd60521b604082015260600190565b81810381811115612131576121316134b3565b634e487b7160e01b600052603160045260246000fd5b6000610d008201905086825260208681840152856040840152846060840152608083018460005b6064811015613616578151835291830191908301906001016135f9565b50505050969550505050505056fea264697066735822122073554213ff27a37f4bf1a968abca445367072a06efbdb0a00b9940e9bfd51dcc64736f6c63430008100033",
  "immutableReferences": {},
  "source": "// SPDX-License-Identifier: MIT\npragma solidity >=0.8.16;\npragma experimental ABIEncoderV2;\n\nimport {FirstAuction} from \"./auction.sol\";\n\ncontract Marketplace {\n    enum AuctionState {\n        RUNNING, // auction is running and bids are being places\n        REVEALING, // auction has ended and bidders are revealing their bids\n        NOT_STARTED, // auction hasn't started yet\n        FINISHED // auction has finished\n    }\n\n    struct Bid {\n        uint256 valuePrice;\n        uint256 valueQuantity;\n        address payable bidderAddress;\n        bytes32 blindBidPrice; // will have price and quantity you are bidding\n        bytes32 blindBidQuantity;\n        bytes32 blindKey;\n        uint256 limitingResourceQuantity;\n        uint256 buyerID;\n        uint256 sellerID;\n        uint256 moneySent;\n        bool correctReveal;\n    }\n\n    struct Purchase {\n        uint256 sellerID;\n        uint256 buyerID;\n        uint256 quantity;\n        address payable customeraddr;\n        uint256 money;\n    }\n\n    struct Product {\n        uint256 tag;\n        uint256 manufacturerID;\n        uint256 sellerA; //wheels\n        uint256 sellerB; //car_body\n    }\n\n    uint256 public num_supplier;\n    uint256 public num_manufacturer;\n    uint256 public num_customer;\n    uint256 public num_products;\n\n    mapping(uint256 => Supplier) public suppliers;\n    mapping(uint256 => Manufacturer) public manufacturers;\n    mapping(uint256 => Customer) public customers;\n    mapping(address => Bid[]) bidsTillNow;\n    mapping(address => Purchase[]) purchasesTillNow;\n    mapping(address => Product[]) productsTillNow;\n\n    address payable public owner;\n\n    constructor() {\n        owner = payable(msg.sender);\n        num_manufacturer = 0;\n        num_supplier = 0;\n        num_customer = 0;\n    }\n\n    struct Supplier {\n        uint256 tag;\n        int256 partType; // 0 is wheels, 1 is car_parts\n        uint256 quantityAvailable;\n        AuctionState currentState;\n        address wallet;\n        uint256 maxBidders;\n        uint256 bidsPlaced;\n        uint256 bidsRevealed;\n    }\n\n    struct Manufacturer {\n        uint256 _tag;\n        uint256 quantityA;\n        uint256 quantityB;\n        uint256 cars;\n        uint256 carsprice;\n        AuctionState currentState;\n        address wallet;\n        uint256 maxBidders;\n        uint256 QA_sellerID;\n        uint256 QB_sellerID;\n    }\n\n    mapping(uint256 => Car[]) carsBought;\n\n    struct Car {\n        uint256 tag;\n        uint256 manufacturerID;\n        uint256 sellerIDA;\n        uint256 sellerIDB;\n    }\n\n    struct Customer {\n        uint256 _tag;\n        address wallet;\n    }\n\n    // function makeBidSupplier(int index, ...) public {\n    //     suppliers[index].auction.makeBid(...);\n    // }\n    // Helpers\n    function minimum(uint256 a, uint256 b) public pure returns (uint256) {\n        return a >= b ? b : a;\n    }\n\n    function supplierStartAuction(uint256 tag) public returns (uint256) {\n        // function for supplier to start their bidding process\n        require(tag <= num_supplier, \"User doesn't exist\");\n        require(\n            suppliers[tag].currentState != AuctionState.RUNNING,\n            \"Auction in-progress already\"\n        );\n\n        // TODO: UNCOMMENT THE FOLLOWING TO ENSURE PEOPLE ARE STARTING AUCTIONS FOR THEMSELVES ONLY\n        // require(\n        //     suppliers[tag].wallet == msg.sender,\n        //     \"Start auction only for yourself!\"\n        // );\n\n        suppliers[tag].currentState = AuctionState.RUNNING;\n        suppliers[tag].bidsPlaced = 0;\n        suppliers[tag].bidsRevealed = 0;\n        emit StartSupplierAuction(tag, block.timestamp);\n        return block.timestamp;\n    }\n\n    function supplierEndAuction(uint256 tag) public returns (uint256) {\n        // function for suppilier to end their auction\n        require(tag <= num_supplier, \"User doesn't exist\");\n        require(\n            suppliers[tag].currentState == AuctionState.RUNNING,\n            \"Auction ended already\"\n        );\n\n        // TODO: UNCOMMENT THE FOLLOWING TO ENSURE PEOPLE ARE ENDING AUCTIONS FOR THEMSELVES ONLY\n        // require(\n        //     suppliers[tag].wallet == msg.sender,\n        //     \"End auction only for yourself!\"\n        // );\n\n        suppliers[tag].currentState = AuctionState.REVEALING;\n        suppliers[tag].bidsRevealed = 0;\n        emit EndSupplierAuction(tag, block.timestamp);\n        return block.timestamp;\n    }\n\n    function transferMoney(address senderaddr, uint256 effectivePrice)\n        public\n        payable\n    {\n        // do eth transactions here\n        require(payable(senderaddr).send(effectivePrice), \"Transfer failed!\");\n    }\n\n    function supplierEndReveal(uint256 tag)\n        public\n        returns (\n            // afterOnly(supplierEndAuction(tag))\n            uint256\n        )\n    {\n        require(tag <= num_supplier, \"Supplier doesn't exist\");\n        require(\n            suppliers[tag].currentState == AuctionState.REVEALING,\n            \"Reveal phase not running\"\n        );\n\n        // TODO: UNCOMMENT THE FOLLOWING TO ENSURE PEOPLE ARE ALLOCATING FOR THEMSELVES ONLY\n        // require(\n        //     (suppliers[tag].wallet == msg.sender || owner == msg.sender),\n        //     \"Operation now allowed\"\n        // );\n\n        suppliers[tag].currentState = AuctionState.FINISHED;\n\n        // do allocation logic and emit\n\n        // bubble sort according to bid value\n        for (uint256 i = 0; i < bidsTillNow[suppliers[tag].wallet].length; i++)\n            for (uint256 j = i + 1; j < bidsTillNow[suppliers[tag].wallet].length; j++)\n                if (\n                    bidsTillNow[suppliers[tag].wallet][i].valuePrice <\n                    bidsTillNow[suppliers[tag].wallet][j].valuePrice\n                ) {\n                    Bid memory x = bidsTillNow[suppliers[tag].wallet][i];\n                    bidsTillNow[suppliers[tag].wallet][i] = bidsTillNow[\n                        suppliers[tag].wallet\n                    ][j];\n                    bidsTillNow[suppliers[tag].wallet][j] = x;\n                }\n        // allocate according to limiting resource first\n        uint256[100] memory allocatingPrices;\n        uint256[100] memory allocatingQuantities;\n        uint256[100] memory moneySentWithBid;\n\n        for (\n            uint256 i = 0;\n            i < bidsTillNow[suppliers[tag].wallet].length;\n            i++\n        ) {\n            Bid memory bid = bidsTillNow[suppliers[tag].wallet][i];\n            if (bid.correctReveal == false) continue;\n\n            moneySentWithBid[bid.buyerID] = bid.moneySent;\n\n            uint256 allocatingHere = minimum(\n                suppliers[tag].quantityAvailable,\n                bid.limitingResourceQuantity\n            );\n            allocatingHere = minimum(allocatingHere, bid.valueQuantity);\n\n            allocatingPrices[bid.buyerID] = bid.valuePrice;\n            allocatingQuantities[bid.buyerID] = allocatingHere;\n            suppliers[tag].quantityAvailable -= allocatingHere;\n            bidsTillNow[suppliers[tag].wallet][i]\n                .valueQuantity -= allocatingHere;\n        }\n\n        // allocate remaining for maximum profit\n        for (\n            uint256 i = 0;\n            i < bidsTillNow[suppliers[tag].wallet].length;\n            i++\n        ) {\n            Bid memory bid = bidsTillNow[suppliers[tag].wallet][i];\n            if (bid.correctReveal == false) continue;\n            uint256 allocatingHere = minimum(\n                suppliers[tag].quantityAvailable,\n                bid.valueQuantity\n            );\n\n            allocatingQuantities[bid.buyerID] += allocatingHere;\n            suppliers[tag].quantityAvailable -= allocatingHere;\n            bidsTillNow[suppliers[tag].wallet][i]\n                .valueQuantity -= allocatingHere;\n        }\n\n        // emit all allocations\n        for (uint256 i = 1; i <= num_manufacturer; i++)\n            if (allocatingQuantities[i] > 0) {\n                emit AllocateFromSupplier(\n                    tag,\n                    i,\n                    allocatingQuantities[i],\n                    allocatingPrices[i]\n                );\n                transferMoney(\n                    manufacturers[i].wallet,\n                    (moneySentWithBid[i] -\n                        allocatingPrices[i] *\n                        allocatingQuantities[i])\n                );\n                transferMoney(\n                    suppliers[tag].wallet,\n                    (allocatingPrices[i] * allocatingQuantities[i])\n                );\n                //update all the manufacturers quanitites to make cars\n                if (suppliers[tag].partType == 1)\n                    updateManufacturerQuantities(\n                        i,\n                        allocatingQuantities[i],\n                        0,\n                        tag,\n                        0\n                    );\n                else if (suppliers[tag].partType == 2)\n                    updateManufacturerQuantities(\n                        i,\n                        0,\n                        allocatingQuantities[i],\n                        0,\n                        tag\n                    );\n                else revert();\n            }\n        while (bidsTillNow[suppliers[tag].wallet].length > 0)\n            bidsTillNow[suppliers[tag].wallet].pop();\n        return block.timestamp;\n    }\n\n    function manufacturerPlacesBid(\n        uint256 manufacturerID,\n        uint256 supplierID,\n        bytes32 blindPrice,\n        bytes32 blindQuantity,\n        bytes32 blindKey,\n        uint256 limit // beforeOnly(supplierEndAuction(supplierID)) // afterOnly(supplierEndAuction(supplierID))\n    ) public payable {\n        //should get all data needed for bid\n        // function for manufacturer to place a bid\n        require(\n            num_manufacturer >= manufacturerID,\n            \"Manufacturer doesn't exist\"\n        );\n        require(num_supplier >= supplierID, \"Supplier doesn't exist\");\n        require(\n            suppliers[supplierID].currentState == AuctionState.RUNNING,\n            \"Supplier isn't running an auction right now\"\n        );\n        require(\n            supplierID == manufacturerID || supplierID == 3,\n            \"Supplier doesnt sell you\"\n        );\n\n        // TODO: UNCOMMENT THE FOLLOWING TO ENSURE PEOPLE ARE ONLY PLACING BIDS FOR THEMSELVES\n        // require(\n        //     manufacturers[manufacturerID].wallet == msg.sender,\n        //     \"You can only bid for yourself!\"\n        // );\n\n        Bid memory newbid;\n        newbid.bidderAddress = payable(msg.sender);\n        newbid.moneySent = msg.value;\n        newbid.buyerID = manufacturerID;\n        newbid.sellerID = supplierID;\n        newbid.blindBidPrice = blindPrice;\n        newbid.blindBidQuantity = blindQuantity;\n        newbid.blindKey = blindKey;\n        newbid.limitingResourceQuantity = limit;\n        newbid.valuePrice = 0;\n        newbid.valueQuantity = 0;\n        newbid.correctReveal = false;\n\n        address supplieraddr = suppliers[supplierID].wallet;\n        bidsTillNow[supplieraddr].push(newbid);\n\n        suppliers[supplierID].bidsPlaced += 1;\n\n        emit ManufacturerBids(\n            supplierID,\n            manufacturerID,\n            blindPrice,\n            blindQuantity,\n            blindKey\n        );\n\n        // if (\n        //     suppliers[supplierID].bidsPlaced == suppliers[supplierID].maxBidders\n        // ) {\n        //     // go to reveal phase\n        //     suppliers[supplierID].currentState = AuctionState.REVEALING;\n        //     supplierEndAuction()\n        // }\n    }\n\n    function customerPurchase(\n        uint256 customerID,\n        uint256 manufacturerID,\n        uint256 quantity\n    ) external payable {\n        require(\n            customers[customerID].wallet == msg.sender || owner == msg.sender,\n            \"Access Denied\"\n        );\n        Purchase memory newpurchase;\n        newpurchase.sellerID = manufacturerID;\n        newpurchase.customeraddr = payable(msg.sender);\n        newpurchase.quantity = quantity;\n        newpurchase.buyerID = customerID;\n        newpurchase.money = msg.value;\n        uint256 unit_cost = manufacturers[manufacturerID].carsprice;\n        uint256 total_cost = unit_cost * quantity;\n        require(newpurchase.money >= total_cost, \"Money not enough\");\n        address manf_adrr = manufacturers[manufacturerID].wallet;\n        purchasesTillNow[manf_adrr].push(newpurchase);\n        emit CustomerRequest(\n            customerID,\n            manufacturerID,\n            quantity,\n            manufacturers[manufacturerID].carsprice\n        );\n    }\n\n    function manufactuerRevealBid(\n        uint256 manufacturerID,\n        uint256 supplierID,\n        uint256 price,\n        uint256 quantity,\n        uint256 key\n    ) public returns (bool) {\n        require(manufacturerID <= num_manufacturer, \"Invalid manufacturer\");\n        require(suppliers[supplierID].currentState == AuctionState.REVEALING);\n        // TODO: UNCOMMENT THE FOLLOWING TO ENSURE PEOPLE ARE ONLY REVEALING BIDS FOR THEMSELVES\n        // require(\n        //     manufacturers[manufacturerID].wallet == msg.sender,\n        //     \"Reveal only for yourself!\"\n        // );\n\n        for (\n            uint256 i = 0;\n            i < bidsTillNow[suppliers[supplierID].wallet].length;\n            i++\n        )\n            if (\n                bidsTillNow[suppliers[supplierID].wallet][i].buyerID ==\n                manufacturerID\n            ) {\n                require(\n                    keccak256(abi.encodePacked(key)) ==\n                        bidsTillNow[suppliers[supplierID].wallet][i]\n                            .blindKey,\n                    \"Incorrect key -- keeping your money\"\n                );\n                require(\n                    keccak256(abi.encodePacked(price + key)) ==\n                        bidsTillNow[suppliers[supplierID].wallet][i]\n                            .blindBidPrice,\n                    \"Incorrect price -- keeping your money\"\n                );\n                require(\n                    keccak256(abi.encodePacked(quantity + key)) ==\n                        bidsTillNow[suppliers[supplierID].wallet][i]\n                            .blindBidQuantity,\n                    \"Incorrect quantity -- keeping your money\"\n                );\n\n                uint256 effectivePrice = price * quantity;\n                require(\n                    effectivePrice <\n                        bidsTillNow[suppliers[supplierID].wallet][i].moneySent,\n                    \"Insufficient funds sent -- keeping your money\"\n                );\n\n                bidsTillNow[suppliers[supplierID].wallet][i]\n                    .correctReveal = true;\n\n                bidsTillNow[suppliers[supplierID].wallet][i].valuePrice = price;\n                bidsTillNow[suppliers[supplierID].wallet][i]\n                    .valueQuantity = quantity;\n                emit ManufacturerReveal(\n                    supplierID,\n                    manufacturerID,\n                    price,\n                    quantity,\n                    key\n                );\n\n                suppliers[supplierID].bidsRevealed += 1;\n                if (\n                    suppliers[supplierID].bidsRevealed ==\n                    suppliers[supplierID].maxBidders\n                ) {\n                    // go to allocation\n                    // supplierEndReveal(supplierID);\n                }\n\n                return true;\n            }\n        return false;\n    }\n\n\n    event DummyEvent(uint256 i, uint256 quantity);\n\n    function manufacturerSupplyCars(uint256 manufacturerID) public {\n        require(num_manufacturer >= manufacturerID);\n        require(\n            msg.sender == manufacturers[manufacturerID].wallet ||\n                msg.sender == owner\n        );\n        for (\n            uint256 i = 0;\n            i < purchasesTillNow[manufacturers[manufacturerID].wallet].length;\n            i++\n        ) {\n            \n            //Money is already checked, Quantity check is done here\n            if (\n                purchasesTillNow[manufacturers[manufacturerID].wallet][i]\n                    .quantity <= manufacturers[manufacturerID].cars\n            ) {\n                uint256 effective_price = purchasesTillNow[\n                    manufacturers[manufacturerID].wallet\n                ][i].quantity * manufacturers[manufacturerID].carsprice;\n                uint256 refund_amount = purchasesTillNow[\n                    manufacturers[manufacturerID].wallet\n                ][i].money - effective_price;\n\n                manufacturers[manufacturerID].cars -= purchasesTillNow[\n                    manufacturers[manufacturerID].wallet\n                ][i].quantity;\n                uint256 num_of_cars = purchasesTillNow[\n                    manufacturers[manufacturerID].wallet\n                ][i].quantity;\n                address mf_adrr = manufacturers[manufacturerID].wallet;\n                uint256[100] memory carTags;\n                uint256 carTagsIdx = 0;\n                for (uint256 j = 0; j < num_of_cars; j++) {\n                    if(productsTillNow[mf_adrr].length == 0)\n                        break;\n                    uint256 idx = productsTillNow[mf_adrr].length - 1;\n                    Car memory newcar;\n                    newcar.tag = productsTillNow[mf_adrr][idx].tag;\n                    newcar.manufacturerID = manufacturerID;\n                    newcar.sellerIDA = productsTillNow[mf_adrr][idx].sellerA;\n                    newcar.sellerIDB = productsTillNow[mf_adrr][idx].sellerB;\n                    carsBought[purchasesTillNow[mf_adrr][idx].buyerID].push(\n                        newcar\n                    );\n                    productsTillNow[mf_adrr].pop();\n                    carTags[carTagsIdx++] = newcar.tag;\n                }\n                transferMoney(\n                    manufacturers[manufacturerID].wallet,\n                    effective_price\n                );\n                transferMoney(\n                    customers[\n                        purchasesTillNow[manufacturers[manufacturerID].wallet][\n                            i\n                        ].buyerID\n                    ].wallet,\n                    refund_amount\n                );\n                // refundMoney(\n                // customers[purchasesTillNow[manufacturers[manufacturerID].wallet][i].buyerID].wallet,\n                // refund_amount);\n                emit AllocateFromManufacturer(\n                    manufacturerID,\n                    purchasesTillNow[manufacturers[manufacturerID].wallet][i]\n                        .buyerID,\n                    purchasesTillNow[manufacturers[manufacturerID].wallet][i]\n                        .quantity,\n                    effective_price,\n                    carTags\n                );\n            } else {\n                //send them back the amount saying quantity not available\n                revert(\"Quantity not Available\"); //gas to caller\n            }\n        }\n        while(purchasesTillNow[manufacturers[manufacturerID].wallet].length>0)\n        {\n            purchasesTillNow[manufacturers[manufacturerID].wallet].pop();\n        }\n\n    }\n\n    function addSupplier(\n        int256 partType,\n        uint256 quantityAvailable,\n        address payable addr,\n        uint256 auctionBidders\n    ) public {\n        num_supplier++;\n        suppliers[num_supplier] = Supplier(\n            num_supplier,\n            partType,\n            quantityAvailable,\n            AuctionState.NOT_STARTED,\n            addr,\n            auctionBidders,\n            0,\n            0\n        );\n    }\n\n    function addManufacturer(address payable addr, uint256 auctionBidders)\n        public\n    {\n        num_manufacturer++;\n        manufacturers[num_manufacturer] = Manufacturer(\n            num_manufacturer,\n            0,\n            0,\n            0,\n            0,\n            AuctionState.NOT_STARTED,\n            addr,\n            auctionBidders,\n            0,\n            0\n        );\n    }\n\n    function addCustomer(address payable addr) public {\n        num_customer++;\n        customers[num_customer] = Customer(num_customer, addr);\n    }\n\n    // Setter functions\n    function supplierAddQuantity(uint256 suppliedID, uint256 quantityToAdd)\n        public\n    {\n        require(suppliers[suppliedID].wallet == msg.sender);\n        require(num_supplier >= suppliedID);\n        // increase the supplier quantity\n        suppliers[suppliedID].quantityAvailable += quantityToAdd;\n    }\n\n    function updateManufacturerQuantities(\n        uint256 manufacturerID,\n        uint256 quantityA,\n        uint256 quantityB,\n        uint256 supplierA,\n        uint256 supplierB\n    ) private {\n        manufacturers[manufacturerID].quantityA += quantityA;\n        manufacturers[manufacturerID].quantityB += quantityB;\n        uint256 max_cars = minimum(\n            manufacturers[manufacturerID].quantityA,\n            manufacturers[manufacturerID].quantityB\n        );\n        manufacturers[manufacturerID].quantityA -= max_cars;\n        manufacturers[manufacturerID].quantityB -= max_cars;\n        manufacturers[manufacturerID].cars += max_cars;\n        \n        Product memory newcar;\n        num_products++;\n        newcar.tag = num_products;\n        newcar.manufacturerID = manufacturerID;\n        newcar.sellerA = manufacturerID;\n        newcar.sellerB = 3;\n        productsTillNow[manufacturers[manufacturerID].wallet].push(newcar);\n        \n    }\n\n    function set_cars_price(uint256 manufacturerID, uint256 price) public {\n        require(\n            msg.sender == manufacturers[manufacturerID].wallet ||\n                msg.sender == owner,\n            \"Cannot be set by you\"\n        );\n        manufacturers[manufacturerID].carsprice = price;\n    }\n\n    // Starting, ending and allocation of auction by supplier\n    event StartSupplierAuction(uint256 supplierID, uint256 startTime);\n    event EndSupplierAuction(uint256 supplierID, uint256 endTime);\n    event AllocateFromSupplier(\n        uint256 supplierID,\n        uint256 manufacturerID,\n        uint256 quantity,\n        uint256 price\n    );\n\n    // Starting, ending and allocation of auctions by manufacturers\n    event StartManufacturerAuction(uint256 manufacturerID, uint256 startTime);\n    event EndManufacturerAuction(uint256 manufacturerID, uint256 endTime);\n    event CustomerRequest(\n        uint256 CustomerID,\n        uint256 ManufacturerID,\n        uint256 Quantity,\n        uint256 Price\n    );\n    event AllocateFromManufacturer(\n        uint256 manufacturerID,\n        uint256 customerID,\n        uint256 quantity,\n        uint256 price,\n        uint256[100] carTag\n    );\n\n    // Manufacturer places a bid to the supplier\n    event ManufacturerBids(\n        uint256 supplierID,\n        uint256 manufacturerID,\n        bytes32 blindBidPrice,\n        bytes32 blindBidQuantity,\n        bytes32 blindKey\n    );\n    // Manufacturer reveals it's bid to the supplier by providing the key\n    event ManufacturerReveal(\n        uint256 supplierID,\n        uint256 manufacturerID,\n        uint256 price,\n        uint256 quantity,\n        uint256 key\n    );\n\n    // Customer places a bid to the manufacturer\n    event CustomerBid(\n        uint256 manufacturerID,\n        uint256 customerID,\n        bytes32 blindBid\n    );\n    event CustomerReveal(\n        uint256 manufacturerID,\n        uint256 customerID,\n        uint256 price,\n        uint256 quantity\n    );\n\n    // ALL GET FUNCTIONS\n\n    function verifyproduct(uint256 customerID, uint256 car_tag)\n        public\n        view\n        returns (\n            uint256 carID,\n            uint256 manfID,\n            uint256 sellerIDA,\n            uint256 sellerIDB\n        )\n    {\n        for (uint256 i = 0; i < carsBought[customerID].length; i++) {\n            if (carsBought[customerID][i].tag == car_tag)\n                return (\n                    car_tag,\n                    carsBought[customerID][i].manufacturerID,\n                    carsBought[customerID][i].sellerIDA,\n                    carsBought[customerID][i].sellerIDB\n                );\n        }\n        require(0 == 1, \"Car not found in they buyers purchases\");\n        return (0, 0, 0, 0);\n    }\n\n    //everyone can access it\n    function get_cars_price_quantity(uint256 manfID)\n        public\n        view\n        returns (uint256 price, uint256 quantity)\n    {\n        require(num_manufacturer >= manfID, \"Manufacturer ID doesnot exist\");\n        return (manufacturers[manfID].carsprice, manufacturers[manfID].cars);\n    }\n\n    function get_manufacturer_data(uint256 manfID)\n        public\n        view\n        returns (\n            uint256 tag,\n            uint256 quantA,\n            uint256 quantB,\n            uint256 cars\n        )\n    {\n        Manufacturer memory t = manufacturers[manfID];\n        return (t._tag, t.quantityA, t.quantityB, t.cars);\n    }\n\n    function get_car_data(uint256 customerID)\n        public\n        view\n        returns (uint256[10] memory cars)\n    {\n        uint256[10] memory data;\n        uint256 idx = 0;\n        for (uint256 i = 0; i < carsBought[customerID].length; i++) {\n            data[idx++] = carsBought[customerID][i].tag;\n        }\n        return data;\n    }\n    // all modifiers\n    modifier beforeOnly(uint256 _time) {\n        require(block.timestamp < _time);\n        _;\n    }\n    modifier afterOnly(uint256 _time) {\n        require(block.timestamp > _time);\n        _;\n    }\n    function getsuppliers() public view returns(uint256)\n    {\n        return num_supplier;\n    }\n    function getmanufacturers() public view returns(uint256)\n    {\n        return num_manufacturer;\n    }\n    function getstatus(uint256 supplierID) public view returns(AuctionState)\n    {\n        return suppliers[supplierID].currentState;\n    }\n    function getbidcount(uint256 supID) public view  returns (uint len){\n        return bidsTillNow[suppliers[supID].wallet].length;\n    }\n    //test only\n    function set_cars(uint256 manfID, uint256 quant) public {\n        manufacturers[manfID].cars = quant;\n    }\n}\n",
  "sourcePath": "/home/prince/Course_M22/BLOCKCHAIN/Supply-Chain-Smartcontract/contracts/Marketplace.sol",
  "compiler": {
    "name": "solc",
    "version": "0.8.16+commit.07a7930e.Emscripten.clang"
  },
  "schemaVersion": "3.4.8",
  "updatedAt": "2022-09-16T14:59:40.128Z",
  "networkType": "ethereum",
  "devdoc": {
    "kind": "dev",
    "methods": {},
    "version": 1
  },
  "userdoc": {
    "kind": "user",
    "methods": {},
    "version": 1
  }
}